:020000040800F2
:100000000050002069480008D1450008DD4500087F
:10001000E3450008E9450008EF450008000000003E
:10002000000000000000000000000000F54500088E
:1000300001460008000000000D46000819460008AF
:10004000B1480008B1480008B1480008B1480008AC
:10005000B1480008B1480008B1480008B14800089C
:10006000B1480008B1480008B1480008B14800088C
:10007000B1480008B1480008B1480008B14800087C
:10008000B1480008B1480008B1480008B14800086C
:10009000B1480008B1480008B1480008B14800085C
:1000A000B1480008B1480008B1480008B14800084C
:1000B000B1480008B1480008B1480008B14800083C
:1000C000B1480008B1480008B1480008B14800082C
:1000D000B1480008B148000825460008B1480008AA
:1000E000B1480008B1480008B1480008000000000D
:1000F0000000000000000000000000000000000000
:0C01000000000000000000005FF808F1A3
:1001100010B5054C237833B9044B13B10448AFF341
:1001200000800123237010BD7C000020000000002F
:100130003857000808B5034B1BB103490348AFF318
:10014000008008BD00000000800000203857000833
:1001500081F0004102E000BF83F0004330B54FEA78
:1001600041044FEA430594EA050F08BF90EA020FE5
:100170001FBF54EA000C55EA020C7FEA645C7FEA78
:10018000655C00F0E2804FEA5454D4EB5555B8BF9B
:100190006D420CDD2C4480EA020281EA030382EA0C
:1001A000000083EA010180EA020281EA0303362D9E
:1001B00088BF30BD11F0004F4FEA01314FF4801C71
:1001C0004CEA113102D0404261EB410113F0004F83
:1001D0004FEA03334CEA133302D0524263EB43033A
:1001E00094EA050F00F0A780A4F10104D5F1200ED8
:1001F0000DDB02FA0EFC22FA05F2801841F1000133
:1002000003FA0EF2801843FA05F359410EE0A5F106
:1002100020050EF1200E012A03FA0EFC28BF4CF037
:10022000020C43FA05F3C01851EBE37101F00045ED
:1002300007D54FF0000EDCF1000C7EEB00006EEBFA
:100240000101B1F5801F1BD3B1F5001F0CD3490884
:100250005FEA30004FEA3C0C04F101044FEA4452DB
:1002600012F5800F80F09A80BCF1004F08BF5FEA62
:10027000500C50F1000041EB045141EA050130BD42
:100280005FEA4C0C404141EB010111F4801FA4F1E5
:100290000104E9D191F0000F04BF01460020B1FA3A
:1002A00081F308BF2033A3F10B03B3F120020CDA72
:1002B0000C3208DD02F1140CC2F10C0201FA0CF050
:1002C00021FA02F10CE002F11402D8BFC2F1200CB5
:1002D00001FA02F120FA0CFCDCBF41EA0C0190406B
:1002E000E41AA2BF01EB0451294330BD6FEA0404B4
:1002F0001F3C1CDA0C340EDC04F11404C4F120029F
:1003000020FA04F001FA02F340EA030021FA04F3B0
:1003100045EA030130BDC4F10C04C4F1200220FA07
:1003200002F001FA04F340EA0300294630BD21FA45
:1003300004F0294630BD94F0000F83F4801306BF0B
:1003400081F480110134013D4EE77FEA645C18BFFF
:100350007FEA655C29D094EA050F08BF90EA020F96
:1003600005D054EA000C04BF1946104630BD91EA8E
:10037000030F1EBF0021002030BD5FEA545C05D191
:100380004000494128BF41F0004130BD14F58004D0
:100390003CBF01F5801130BD01F0004545F0FE4144
:1003A00041F470014FF0000030BD7FEA645C1ABF79
:1003B000194610467FEA655C1CBF0B46024650EAB0
:1003C000013406BF52EA033591EA030F41F40021DC
:1003D00030BD00BF90F0000F04BF0021704730B562
:1003E0004FF4806404F132044FF000054FF0000137
:1003F00050E700BF90F0000F04BF0021704730B5F8
:100400004FF4806404F1320410F0004548BF4042CC
:100410004FF000013EE700BF42004FEAE2014FEA21
:1004200031014FEA02701FBF12F07F4393F07F4FFC
:1004300081F06051704792F0000F14BF93F07F4F2E
:10044000704730B54FF4607401F0004521F0004171
:1004500020E700BF50EA010208BF704730B54FF0F7
:1004600000050AE050EA010208BF704730B511F0FC
:10047000004502D5404261EB41014FF4806404F134
:1004800032045FEA915C3FF4DCAE4FF003025FEAB6
:10049000DC0C18BF03325FEADC0C18BF033202EB3E
:1004A000DC02C2F1200300FA03FC20FA02F001FA98
:1004B00003FE40EA0E0021FA02F11444C1E600BF37
:1004C00070B54FF0FF0C4CF4E06C1CEA11541DBFEA
:1004D0001CEA135594EA0C0F95EA0C0F00F0DEF8B5
:1004E0002C4481EA030621EA4C5123EA4C5350EA9A
:1004F000013518BF52EA033541F4801143F48013EB
:1005000038D0A0FB02CE4FF00005E1FB02E506F07B
:100510000042E0FB03E54FF00006E1FB03569CF0D0
:10052000000F18BF4EF0010EA4F1FF04B6F5007FD6
:1005300064F5407404D25FEA4E0E6D4146EB060648
:1005400042EAC62141EA55514FEAC52040EA5E50D1
:100550004FEACE2EB4F1FD0C88BFBCF5E06F1ED87B
:10056000BEF1004F08BF5FEA500E50F1000041EBB2
:10057000045170BD06F0004646EA010140EA02005F
:1005800081EA0301B4EB5C04C2BFD4EB0C0541EA81
:10059000045170BD41F480114FF0000E013C00F396
:1005A000AB8014F1360FDEBF002001F0004170BDBA
:1005B000C4F10004203C35DA0C341BDC04F11404D3
:1005C000C4F1200500FA05F320FA04F001FA05F25F
:1005D00040EA020001F0004221F0004110EBD3702C
:1005E00021FA04F642EB06015EEA430E08BF20EA58
:1005F000D37070BDC4F10C04C4F1200500FA04F3FB
:1006000020FA05F001FA04F240EA020001F000418C
:1006100010EBD37041F100015EEA430E08BF20EAFF
:10062000D37070BDC4F1200500FA05F24EEA020E47
:1006300020FA04F301FA05F243EA020321FA04F076
:1006400001F0004121FA04F220EA020000EBD3702D
:100650005EEA430E08BF20EAD37070BD94F0000F2D
:100660000FD101F00046400041EB010111F4801F61
:1006700008BF013CF7D041EA060195F0000F18BF12
:10068000704703F00046520043EB030313F4801F4E
:1006900008BF013DF7D043EA0603704794EA0C0F08
:1006A0000CEA135518BF95EA0C0F0CD050EA41061E
:1006B00018BF52EA4306D1D181EA030101F000419B
:1006C0004FF0000070BD50EA410606BF10461946C3
:1006D00052EA430619D094EA0C0F02D150EA0136CF
:1006E00013D195EA0C0F05D152EA03361CBF104610
:1006F00019460AD181EA030101F0004141F0FE41AF
:1007000041F470014FF0000070BD41F0FE4141F432
:10071000780170BD70B54FF0FF0C4CF4E06C1CEA32
:1007200011541DBF1CEA135594EA0C0F95EA0C0FE7
:1007300000F0A7F8A4EB050481EA030E52EA0335A2
:100740004FEA013100F088804FEA03334FF08055C3
:1007500045EA131343EA12634FEA022245EA1115F0
:1007600045EA10654FEA00260EF000419D4208BFA1
:10077000964244F1FD0404F5407402D25B084FEA4E
:100780003202B61A65EB03055B084FEA32024FF4FA
:1007900080104FF4002CB6EB020E75EB030E22BF57
:1007A000B61A754640EA0C005B084FEA3202B6EB17
:1007B000020E75EB030E22BFB61A754640EA5C00C6
:1007C0005B084FEA3202B6EB020E75EB030E22BF56
:1007D000B61A754640EA9C005B084FEA3202B6EB57
:1007E000020E75EB030E22BFB61A754640EADC0016
:1007F00055EA060E18D04FEA051545EA16754FEA78
:1008000006164FEAC30343EA52734FEAC2025FEA95
:100810001C1CC0D111F4801F0BD141EA00014FF024
:1008200000004FF0004CB6E711F4801F04BF0143F5
:100830000020B4F1FD0C88BFBCF5E06F3FF6AFAE11
:10084000B5EB030C04BFB6EB020C5FEA500C50F1A1
:10085000000041EB045170BD0EF0004E4EEA113124
:1008600014EB5C04C2BFD4EB0C0541EA045170BD2B
:1008700041F480114FF0000E013C90E645EA060E6F
:100880008DE60CEA135594EA0C0F08BF95EA0C0F9D
:100890003FF43BAF94EA0C0F0AD150EA01347FF4E5
:1008A00034AF95EA0C0F7FF425AF104619462CE7BC
:1008B00095EA0C0F06D152EA03353FF4FDAE10461F
:1008C000194622E750EA410618BF52EA43067FF470
:1008D000C5AE50EA41047FF40DAF52EA43057FF400
:1008E000EBAE12E74FEA410212F5001215D211D514
:1008F0006FF47873B3EB625212D94FEAC12343F01D
:10090000004343EA505311F0004F23FA02F018BF9E
:10091000404270474FF00000704750EA013005D167
:1009200011F0004008BF6FF0004070474FF000002A
:10093000704700BF4FEA4102B2F1E04324BFB3F574
:10094000001CDCF1FE5C0DD901F0004C4FEAC00246
:100950004CEA5070B2F1004F40EB830008BF20F02A
:100960000100704711F0804F21D113F13872BCBFE4
:1009700001F00040704741F480114FEA5252C2F139
:100980001802C2F1200C10FA0CF320FA02F018BF82
:1009900040F001004FEAC1234FEAD32303FA0CFCD5
:1009A00040EA0C0023FA02F34FEA4303CCE77FEA64
:1009B000625307D150EA01331EBF4FF0FE4040F4AE
:1009C0004000704701F0004040F0FE4040F400005D
:1009D000704700BF4FEA4002B2F1FE4F0FD34FF015
:1009E0009E03B3EB12620DD94FEA002343F000439C
:1009F00010F0004F23FA02F018BF404270474FF04A
:100A00000000704712F1610F01D1420205D110F0D0
:100A1000004008BF6FF0004070474FF00000704783
:100A200042000ED2B2F1FE4F0BD34FF09E03B3EB58
:100A3000126209D44FEA002343F0004323FA02F084
:100A400070474FF00000704712F1610F01D1420270
:100A500002D14FF0FF3070474FF00000704700BFE9
:100A600080B500AF084A084B1B6843F010031360C1
:100A7000032000F053FD002000F008F803F08AFC8A
:100A80000023184680BD00BF0020024080B582B020
:100A900000AF7860124B1A68124B1B7819464FF45E
:100AA0007A73B3FBF1F3B2FBF3F3184600F06BFD7E
:100AB0000346002B01D001230EE07B680F2B0AD8E0
:100AC000002279684FF0FF3000F033FD064A7B6862
:100AD0001360002300E0012318460837BD4680BD9F
:100AE00014000020040000200000002080B400AFAB
:100AF000054B1B781A46054B1B681344034A1360C9
:100B000000BFBD4680BC704704000020B00000203C
:100B100080B400AF024B1B681846BD4680BC7047CE
:100B2000B000002080B584B000AF7860FFF7F0FF20
:100B3000B8607B68FB60FB68B3F1FF3F05D0094BF1
:100B40001B781A46FB681344FB6000BFFFF7E0FF09
:100B50000246BB68D21AFB689A42F7D300BF10372F
:100B6000BD4680BD0400002080B586B000AF78602F
:100B70000023FB7500233B610023BB600023FB6067
:100B80007B68002B01D10123BEE07B689B68002BB2
:100B90007B689B6A002B09D17B680022DA627B6844
:100BA000002283F82420786803F026FC786800F09F
:100BB000B1FB0346FB757B689B6A03F01003002BB7
:100BC00040F09980FB7D002B40F095807B689B6A0C
:100BD00023F4885323F0020343F002027B689A62F5
:100BE0007B685A687B68DB691A437B681B7B5B0008
:100BF0001343BA681343BB607B689B68B3F5807F7F
:100C000003D07B689B68012B02D14FF4807300E016
:100C100000233A6913433B617B681B7D012B19D18B
:100C20007B681B7B002B09D17B689B69013B5A03C6
:100C30003B69134343F400633B610BE07B689B6AB1
:100C400043F020027B689A627B68DB6A43F0010212
:100C50007B68DA627B681B687A681268526822F4E3
:100C600069413A690A435A607B681A687B681B6865
:100C70009968274B0B40B9680B4393607B689B686E
:100C8000B3F5807F03D07B689B68012B04D17B6820
:100C90001B69013B1B05FB607B681B687A68126857
:100CA000D26A22F47001FA680A43DA627B681B6830
:100CB0009A68184B1340BA6893420BD17B680022A4
:100CC000DA627B689B6A23F0030343F001027B68CE
:100CD0009A6218E07B689B6A23F0120343F01002CB
:100CE0007B689A627B68DB6A43F001027B68DA62A8
:100CF0000123FB7507E07B689B6A43F010027B6869
:100D00009A620123FB75FB7D18461837BD4680BDEE
:100D1000FDF7E1FFFE0E1FFF80B584B000AF7860E5
:100D20000023FB737B6893F82430012B01D102234D
:100D300098E07B68012283F82420786800F098FA14
:100D40000346FB73FB7B002B40F087807B689B6A2C
:100D500023F4407323F0010343F480727B689A62AA
:100D60007B681B68414A934205D1414B5B6803F4A1
:100D70007023002B15D17B689B6A23F480127B685B
:100D80009A627B681B685B6803F48063002B26D043
:100D90007B689B6A23F4405343F480527B689A62D9
:100DA0001DE07B689B6A43F480127B689A627B68D3
:100DB0001B682F4A934204D07B681B682B4A9342DE
:100DC0000DD12B4B5B6803F48063002B07D07B684D
:100DD0009B6A23F4405343F480527B689A627B6899
:100DE0009B6A03F48053002B06D07B68DB6A23F0F8
:100DF00006027B68DA6202E07B680022DA627B68C6
:100E0000002283F824207B681B686FF002021A60BE
:100E10007B681B689B6803F46023B3F5602F13D1D4
:100E20007B681B68114A934205D1114B5B6803F440
:100E30007023002B08D17B681B687A68126892685F
:100E400042F4A0029A600CE07B681B687A68126822
:100E5000926842F480129A6003E07B68002283F873
:100E60002420FB7B18461037BD4680BD002801407A
:100E70000024014090B587B000AF7860396000234E
:100E80007B610023FB6000233B61FFF741FE78613B
:100E90007B681B689B6803F48073002B0BD07B6816
:100EA0009B6A43F020027B689A627B68002283F889
:100EB00024200123C8E07B681B685B6803F480730F
:100EC000002B2AD17B681B68DB6A03F47003002BBC
:100ED00023D11AE03B68B3F1FF3F16D03B68002BEB
:100EE00007D0FFF715FE02467B69D21A3B689A428B
:100EF0000BD97B689B6A43F004027B689A627B682B
:100F0000002283F8242003239EE07B681B681B6873
:100F100003F00203002BDDD06CE04D4B1C68022077
:100F200001F09AF90346B4FBF3F27B681B68196978
:100F3000484B0B40002B18D17B681B68D968464B87
:100F40000B40002B11D17B681B681969434B0B4088
:100F5000002B08D17B681B68D968414B0B40002BE4
:100F600001D1142320E029231EE07B681B68196946
:100F70003A4B0B40002B06D17B681B68D968384B75
:100F80000B40002B0DD07B681B681969354B0B405B
:100F9000002B08D17B681B68D968324B0B40002BB3
:100FA00001D1542300E0FC2303FB02F33B611DE06D
:100FB0003B68B3F1FF3F16D03B68002B07D0FFF72B
:100FC000A7FD02467B69D21A3B689A420BD97B681F
:100FD0009B6A43F004027B689A627B68002283F874
:100FE0002420032330E0FB680133FB60FA683B698F
:100FF0009A42DDD37B681B686FF012021A607B682F
:101000009B6A43F400727B689A627B681B689B68EA
:1010100003F46023B3F5602F15D17B681B7B002B95
:1010200011D17B689B6A23F480727B689A627B682B
:101030009B6A03F48053002B05D17B689B6A43F0C5
:1010400001027B689A62002318461C37BD4690BD9A
:101050001400002024499224244992009224491229
:10106000922449004992240080B483B000AF786094
:101070007B681B68DB6C18460C37BD4680BC70472C
:1010800090B484B000AF786039600023FB73002314
:10109000BB607B6893F82430012B01D10223DCE094
:1010A0007B68012283F824203B685B68062B1CD8F0
:1010B0007B6819687B681B68586B3B685A681346E5
:1010C0009B001344053B1F2202FA03F3DB43184045
:1010D0003B681C683B685A6813469B001344053BF9
:1010E00004FA03F303434B633CE03B685B680C2B5F
:1010F0001CD87B6819687B681B68186B3B685A684A
:1011000013469B001344233B1F2202FA03F3DB43E5
:1011100018403B681C683B685A6813469B001344A0
:10112000233B04FA03F303430B631BE07B6819685A
:101130007B681B68D86A3B685A6813469B00134457
:10114000413B1F2202FA03F3DB4318403B681C6853
:101150003B685A6813469B001344413B04FA03F36F
:101160000343CB623B681B68092B1CD97B68196859
:101170007B681B68D8683B681A6813465B00134499
:101180001E3B072202FA03F3DB4318403B689C68CE
:101190003B681A6813465B0013441E3B04FA03F3D2
:1011A0000343CB6019E07B6819687B681B6818698A
:1011B0003B681A6813465B001344072202FA03F3E4
:1011C000DB4318403B689C683B681A6813465B0029
:1011D000134404FA03F303430B613B681B68102BB1
:1011E00003D03B681B68112B32D17B681B681D4AFA
:1011F000934225D17B681B689B6803F40003002B96
:1012000026D17B681B687A681268926842F40002F3
:101210009A603B681B68102B1AD1134B1B68134A4A
:10122000A2FB03239A0C13469B0013445B00BB6094
:1012300002E0BB68013BBB60BB68002BF9D107E053
:101240007B689B6A43F020027B689A620123FB73F0
:101250007B68002283F82420FB7B18461037BD46AC
:1012600090BC7047002401401400002083DE1B4323
:1012700080B584B000AF78600023FB600023BB60C2
:101280007B681B689B6803F00103012B39D07B68E6
:101290001B687A681268926842F001029A601B4BE0
:1012A0001B681B4AA2FB03239B0CBB6002E0BB68CC
:1012B000013BBB60BB68002BF9D1FFF729FCF8604C
:1012C00018E0FFF725FC0246FB68D31A022B11D960
:1012D0007B689B6A43F010027B689A627B68DB6ADA
:1012E00043F001027B68DA627B68002283F82420E5
:1012F000012307E07B681B689B6803F00103012B57
:10130000DFD1002318461037BD4680BD14000020F1
:1013100083DE1B4380B584B000AF78600023FB60A0
:101320007B681B689B6803F00103012B27D17B6856
:101330001B687A681268926822F001029A60FFF7CF
:10134000E7FBF86014E0FFF7E3FB0246FB68D31A03
:10135000022B0DD97B689B6A43F010027B689A626E
:101360007B68DB6A43F001027B68DA62012307E0F5
:101370007B681B689B6803F00103012BE3D000230B
:1013800018461037BD4680BD80B485B000AF786088
:101390007B6803F00703FB600C4BDB68BB60BA683B
:1013A0004FF6FF031340BB60FB681A02BB68134390
:1013B00043F0BF6343F40033BB60044ABB68D360AF
:1013C00000BF1437BD4680BC704700BF00ED00E091
:1013D00080B400AF044BDB681B0A03F00703184618
:1013E000BD4680BC704700BF00ED00E080B483B014
:1013F00000AF0346FB7197F90730002B0BDB084960
:1014000097F907305B09FA7902F01F02012000FA10
:1014100002F241F8232000BF0C37BD4680BC704764
:1014200000E100E080B483B000AF03463960FB7197
:1014300097F90730002B0ADB0D4997F907303A6816
:10144000D2B21201D2B20B4483F800230AE0094958
:10145000FB7903F00F03043B3A68D2B21201D2B217
:101460000B441A7600BF0C37BD4680BC704700BFE6
:1014700000E100E000ED00E080B489B000AFF8606A
:10148000B9607A60FB6803F00703FB61FB69C3F195
:101490000703042B28BF0423BB61FB690433062B1D
:1014A00002D9FB69033B00E000237B610122BB6999
:1014B00002FA03F35A1EBB681A407B699A40012165
:1014C0007B6901FA03F3591E7B680B4013431846EE
:1014D0002437BD4680BC704780B582B000AF7860CD
:1014E0007B68013BB3F1807F01D301230FE00A4AFF
:1014F0007B68013B53600F214FF0FF30FFF792FFF5
:10150000054B00229A60044B07221A6000231846FC
:101510000837BD4680BD00BF10E000E080B582B056
:1015200000AF78607868FFF72FFF00BF0837BD462F
:1015300080BD80B586B000AF0346B9607A60FB73AA
:1015400000237B61FFF744FF78617A68B9687869A6
:10155000FFF792FF024697F90F3011461846FFF742
:1015600061FF00BF1837BD4680BD80B582B000AFB7
:101570000346FB7197F907301846FFF737FF00BFA6
:101580000837BD4680BD80B582B000AF786078680E
:10159000FFF7A2FF034618460837BD4680BD00008E
:1015A00080B48BB000AF7860396000237B62002389
:1015B0003B6227E101227B6A02FA03F3FB613B688D
:1015C0001A68FB691340BB61BA69FB699A4240F033
:1015D00016813B685B68122B34D0122B0DD8022B7E
:1015E0002BD0022B04D8002B31D0012B1CD048E08B
:1015F000032B43D0112B1BD043E0894A934226D0C2
:10160000874A934206D8874A934220D0864A93421B
:101610001DD036E0854A934219D0854A934216D0B0
:10162000844A934213D02CE03B68DB683B6228E09D
:101630003B68DB6804333B6223E03B68DB680833CC
:101640003B621EE03B68DB680C333B6219E03B68A1
:101650009B68002B02D104233B6212E03B689B682D
:10166000012B05D108233B627B68FA691A6108E007
:1016700008233B627B68FA695A6102E000233B62FF
:1016800000BFBB69FF2B01D87B6801E07B68043396
:101690007B61BB69FF2B02D87B6A9B0002E07B6AFF
:1016A000083B9B003B617B691A680F213B6901FA8B
:1016B00003F3DB431A40396A3B6901FA03F31A4327
:1016C0007B691A603B685B6803F08053002B00F075
:1016D0009680594A584B9B6943F001039361564BDE
:1016E0009B6903F00103BB60BB68544A7B6A9B089B
:1016F000023352F82330FB607B6A03F003039B0044
:101700000F2202FA03F3DB43FA681340FB607B68A5
:101710004B4A934213D07B684A4A93420DD07B6870
:10172000494A934207D07B68484A934201D1032338
:1017300006E0042304E0022302E0012300E000238A
:101740007A6A02F0030292009340FA681343FB6046
:101750003A497B6A9B080233FA6841F823203B68C8
:101760005B6803F48033002B06D03949384B1A6884
:10177000BB6913430B6006E03549354B1A68BB69FA
:10178000DB4313400B603B685B6803F40033002BC2
:1017900006D02F492E4B5A68BB6913434B6006E0B5
:1017A0002B492B4B5A68BB69DB4313404B603B68AA
:1017B0005B6803F48013002B06D02549244B9A68FC
:1017C000BB6913438B6006E02149214B9A68BB69D2
:1017D000DB4313408B603B685B6803F40013002B12
:1017E00006D01B491A4BDA68BB691343CB6006E08D
:1017F0001749174BDA68BB69DB431340CB607B6A40
:1018000001337B623B681A687B6A22FA03F3002B80
:101810007FF4D0AE00BF2C37BD4680BC704700BF00
:101820000000211000001110000012100000311003
:1018300000003210000022100010024000000140A1
:1018400000080140000C014000100140001401405C
:101850000004014080B485B000AF78600B467B8007
:101860007B689A687B881340002B02D00123FB73AE
:1018700001E00023FB73FB7B18461437BD4680BC98
:10188000704780B483B000AF78600B467B8013460E
:101890007B707B78002B03D07A887B681A6103E029
:1018A0007B881A047B681A6100BF0C37BD4680BC78
:1018B0007047000080B586B000AF78607B68002B71
:1018C00001D101236CE27B681B6803F00103002B4C
:1018D00000F08780924B5B6803F00C03042B0CD064
:1018E0008F4B5B6803F00C03082B12D18C4B5B68A9
:1018F00003F48033B3F5803F0BD1894B1B6803F4AD
:101900000033002B6CD07B685B68002B68D101230F
:1019100046E27B685B68B3F5803F06D1804A804B26
:101920001B6843F4803313602EE07B685B68002BF8
:101930000CD17B4A7A4B1B6823F480331360784ABE
:10194000774B1B6823F4802313601DE07B685B6882
:10195000B3F5A02F0CD1724A714B1B6843F480235E
:1019600013606F4A6E4B1B6843F4803313600BE0C7
:101970006B4A6B4B1B6823F480331360684A684BD7
:101980001B6823F4802313607B685B68002B13D0F3
:10199000FFF7BEF8386108E0FFF7BAF802463B6986
:1019A000D31A642B01D90323FAE15D4B1B6803F4BE
:1019B0000033002BF0D014E0FFF7AAF8386108E0FC
:1019C000FFF7A6F802463B69D31A642B01D903231B
:1019D000E6E1534B1B6803F40033002BF0D100E029
:1019E00000BF7B681B6803F00203002B63D04C4BE5
:1019F0005B6803F00C03002B0BD0494B5B6803F0D2
:101A00000C03082B1CD1464B5B6803F48033002B7E
:101A100016D1434B1B6803F00203002B05D07B68F3
:101A20001B69012B01D00123BAE13D493C4B1B68E6
:101A300023F0F8027B685B69DB0013430B603AE03C
:101A40007B681B69002B20D0364B01221A60FFF700
:101A50005FF8386108E0FFF75BF802463B69D31A8C
:101A6000022B01D903239BE12D4B1B6803F00203DA
:101A7000002BF0D02A492A4B1B6823F0F8027B6820
:101A80005B69DB0013430B6015E0264B00221A60F4
:101A9000FFF73EF8386108E0FFF73AF802463B6985
:101AA000D31A022B01D903237AE11D4B1B6803F0E3
:101AB0000203002BF0D17B681B6803F00803002BA6
:101AC0003AD07B689B69002B19D0174B01221A6012
:101AD000FFF71EF8386108E0FFF71AF802463B6985
:101AE000D31A022B01D903235AE10D4B5B6A03F091
:101AF0000203002BF0D0012000F0DAFA1CE00A4BC0
:101B000000221A60FFF704F838610FE0FFF700F8D1
:101B100002463B69D31A022B08D9032340E100BFD8
:101B20000010024000004242800442429E4B5B6A29
:101B300003F00203002BE9D17B681B6803F0040368
:101B4000002B00F0A6800023FB75974BDB6903F0A8
:101B50008053002B0DD1944A934BDB6943F08053A3
:101B6000D361914BDB6903F08053BB60BB680123F9
:101B7000FB758E4B1B6803F48073002B18D18B4AC6
:101B80008A4B1B6843F480731360FEF7C1FF386112
:101B900008E0FEF7BDFF02463B69D31A642B01D96A
:101BA0000323FDE0814B1B6803F48073002BF0D00E
:101BB0007B68DB68012B06D17B4A7B4B1B6A43F0B9
:101BC000010313622DE07B68DB68002B0CD1764AA1
:101BD000754B1B6A23F001031362734A724B1B6A35
:101BE00023F0040313621CE07B68DB68052B0CD137
:101BF0006D4A6D4B1B6A43F0040313626A4A6A4BD9
:101C00001B6A43F0010313620BE0674A664B1B6AD1
:101C100023F001031362644A634B1B6A23F004033D
:101C200013627B68DB68002B15D0FEF771FF38610B
:101C30000AE0FEF76DFF02463B69D31A41F2883293
:101C4000934201D90323ABE0574B1B6A03F0020315
:101C5000002BEED014E0FEF75BFF38610AE0FEF7E0
:101C600057FF02463B69D31A41F28832934201D9A9
:101C7000032395E04C4B1B6A03F00203002BEED1CB
:101C8000FB7D012B05D1484A474BDB6923F080538C
:101C9000D3617B68DB69002B00F08180424B5B687D
:101CA00003F00C03082B61D07B68DB69022B46D163
:101CB0003F4B00221A60FEF72BFF386108E0FEF769
:101CC00027FF02463B69D31A022B01D9032367E0A1
:101CD000354B1B6803F00073002BF0D17B681B6A47
:101CE000B3F5803F08D130492F4B5B6823F40032B5
:101CF0007B689B6813434B602B482B4B5B6823F43A
:101D000074127B68196A7B685B6A0B4313434360F8
:101D1000274B01221A60FEF7FBFE386108E0FEF750
:101D2000F7FE02463B69D31A022B01D9032337E0A1
:101D30001D4B1B6803F00073002BF0D02FE01C4BF1
:101D400000221A60FEF7E4FE386108E0FEF7E0FECC
:101D500002463B69D31A022B01D9032320E0124B20
:101D60001B6803F00073002BF0D118E07B68DB697F
:101D7000012B01D1012313E00B4B5B68FB60FB6877
:101D800003F480327B681B6A9A4206D1FB6803F435
:101D900070127B685B6A9A4201D0012300E0002345
:101DA00018461837BD4680BD001002400070004044
:101DB0006000424280B584B000AF786039607B68D3
:101DC000002B01D10123D0E06A4B1B6803F007020E
:101DD0003B689A4210D26749664B1B6823F00702A2
:101DE0003B6813430B60634B1B6803F007023B68BF
:101DF0009A4201D00123B8E07B681B6803F002031C
:101E0000002B20D07B681B6803F00403002B05D057
:101E1000594A594B5B6843F4E06353607B681B6825
:101E200003F00803002B05D0534A534B5B6843F47F
:101E3000605353605049504B5B6823F0F0027B685D
:101E40009B6813434B607B681B6803F00103002B06
:101E500040D07B685B68012B07D1474B1B6803F4BC
:101E60000033002B15D101237FE07B685B68022BD8
:101E700007D1414B1B6803F00073002B09D10123EC
:101E800073E03D4B1B6803F00203002B01D10123DB
:101E90006BE03949384B5B6823F003027B685B6871
:101EA00013434B60FEF734FEF8600AE0FEF730FEA5
:101EB0000246FB68D31A41F28832934201D90323C8
:101EC00053E02D4B5B6803F00C027B685B689B0062
:101ED0009A42EBD1274B1B6803F007023B689A42FA
:101EE00010D92449234B1B6823F007023B68134396
:101EF0000B60204B1B6803F007023B689A4201D03D
:101F0000012332E07B681B6803F00403002B08D038
:101F10001949194B5B6823F4E0627B68DB68134363
:101F20004B607B681B6803F00803002B09D0124943
:101F3000114B5B6823F460527B681B69DB00134321
:101F40004B6000F021F801460B4B5B681B0903F066
:101F50000F030A4AD35C21FA03F3094A1360094BC1
:101F60001B681846FEF792FD002318461037BD4641
:101F700080BD00BF00200240001002407C570008D6
:101F8000140000200000002090B48AB000AF2A4B5B
:101F90003C1D0FCB84E80F00284B1B883B8000239F
:101FA000FB610023BB6100237B6200237B61002374
:101FB0003B62234B5B68FB61FB6903F00C03042B62
:101FC00002D0082B03D02DE01E4B3B622DE0FB69B5
:101FD0009B0C03F00F0307F12802134413F8243C71
:101FE0007B61FB6903F48033002B13D0144B5B68D7
:101FF0005B0C03F0010307F12802134413F8283C9B
:10200000BB617B690F4A02FB03F2BB69B2FBF3F3CE
:102010007B6204E07B690C4A02FB03F37B627B6A10
:102020003B6202E0074B3B6200BF3B6A1846283721
:10203000BD4690BC704700BF50570008605700086D
:102040000010024000127A0000093D0080B400AF89
:10205000024B1B681846BD4680BC70471400002028
:1020600080B500AFFFF7F2FF0146054B5B681B0A26
:1020700003F00703034AD35C21FA03F3184680BD3B
:10208000001002408C57000880B500AFFFF7DEFF5C
:102090000146054B5B68DB0A03F00703034AD35C88
:1020A00021FA03F3184680BD001002408C57000847
:1020B00080B485B000AF78600A4B1B680A4AA2FB67
:1020C00003235B0A7A6802FB03F3FB6000BFFB6833
:1020D0005A1EFA60002BF9D100BF1437BD4680BCF0
:1020E000704700BF14000020D34D621080B586B049
:1020F00000AF786000233B610023FB607B681B68B6
:1021000003F00103002B7DD00023FB754F4BDB69EF
:1021100003F08053002B0DD14C4A4C4BDB6943F04C
:102120008053D361494BDB6903F08053BB60BB68CC
:102130000123FB75464B1B6803F48073002B18D1F9
:10214000434A434B1B6843F480731360FEF7E0FC83
:10215000386108E0FEF7DCFC02463B69D31A642BC9
:1021600001D903236DE03A4B1B6803F48073002B05
:10217000F0D0364B1B6A03F44073FB60FB68002B06
:102180002ED07B685B6803F44072FB689A4227D0CC
:102190002E4B1B6A23F44073FB602E4B01221A6006
:1021A0002C4B00221A60294AFB681362FB6803F07B
:1021B0000103002B14D0FEF7ABFC38610AE0FEF7F8
:1021C000A7FC02463B69D31A41F28832934201D9F7
:1021D000032336E01D4B1B6A03F00203002BEED0F5
:1021E0001A491A4B1B6A23F440727B685B681343DD
:1021F0000B62FB7D012B05D1144A144BDB6923F0E4
:102200008053D3617B681B6803F00203002B08D066
:102210000E490E4B5B6823F440427B689B68134376
:102220004B607B681B6803F01003002B08D0074944
:10223000064B5B6823F480027B68DB6813434B60CA
:10224000002318461837BD4680BD00BF001002406D
:10225000007000404004424290B58DB000AF7860FD
:10226000554B07F10C040FCB84E80F00534B1B8830
:102270003B8100237B620023FB6200233B6200233F
:10228000FB610023BB627B68022B7FD0102B02D046
:10229000012B48D08BE04A4B5B68FB61484B1B68C5
:1022A00003F08073002B7FD0FB699B0C03F00F03BE
:1022B00007F13002134413F8243C3B62FB6903F43A
:1022C0008033002B18D03E4B5B685B0C03F001039E
:1022D00007F13002134413F8283C7B62FB6903F4D6
:1022E0008033002B0DD0374A7B6AB2FBF3F33A6A96
:1022F00002FB03F3FB6204E03B6A334A02FB03F395
:10230000FB622F4B5B6803F48003B3F5800F02D1AF
:10231000FB6ABB6248E0FB6A5B002C4AA2FB03231A
:102320005B08BB6240E0264B1B6AFB61FB6903F460
:102330004073B3F5807F08D1FB6903F00203002BE3
:1023400003D04FF40043BB621FE0FB6903F440730A
:10235000B3F5007F09D11A4B5B6A03F00203002B2F
:1023600003D049F64043BB620FE0FB6903F44073BE
:10237000B3F5407F1AD1124B1B6803F40033002BD6
:1023800014D04FF22443BB6210E00FE0FFF77CFE55
:1023900002460B4B5B689B0B03F0030301335B00AE
:1023A000B2FBF3F3BB6202E000BF00E000BFBB6A18
:1023B00018463437BD4690BD64570008745700086E
:1023C0000010024000127A0000093D00ABAAAAAA40
:1023D00080B582B000AF78607B68002B01D101230B
:1023E0001DE07B6893F83D30DBB2002B06D17B68A3
:1023F000002283F83C20786802F03AF87B680222D9
:1024000083F83D207B681A687B68043319461046C0
:1024100000F010FA7B68012283F83D200023184663
:102420000837BD4680BD80B485B000AF78607B685A
:10243000022283F83D207B681B689B6803F007033A
:10244000FB60FB68062B07D07B681B687A68126804
:10245000126842F001021A607B68012283F83D2075
:10246000002318461437BD4680BC704780B582B043
:1024700000AF78607B68002B01D101231DE07B68F1
:1024800093F83D30DBB2002B06D17B68002283F845
:102490003C20786800F015F87B68022283F83D2024
:1024A0007B681A687B6804331946104600F0C2F94D
:1024B0007B68012283F83D20002318460837BD467B
:1024C00080BD80B483B000AF786000BF0C37BD46DC
:1024D00080BC704780B584B000AF786039607B689D
:1024E0001B6801223968184600F024FC7B681B68D1
:1024F000104A934207D17B681B687A681268526C55
:1025000042F400425A647B681B689B6803F007032F
:10251000FB60FB68062B07D07B681B687A68126833
:10252000126842F001021A60002318461037BD46B7
:1025300080BD00BF002C014080B584B000AFF860C2
:10254000B9607A60FB6893F83C30012B01D102231B
:10255000B4E0FB68012283F83C20FB68022283F888
:102560003D207B680C2B00F29F8001A252F823F0E3
:10257000A5250008A9260008A9260008A926000804
:10258000E5250008A9260008A9260008A9260008B4
:1025900027260008A9260008A9260008A926000861
:1025A00067260008FB681B68B968184600F0A4F9A4
:1025B000FB681B68FA681268926942F008029A6127
:1025C000FB681B68FA681268926922F004029A613B
:1025D000FB681B68FA6812689169BA6812690A4355
:1025E0009A6162E0FB681B68B968184600F0EAF976
:1025F000FB681B68FA681268926942F400629A618B
:10260000FB681B68FA681268926922F480629A611A
:10261000FB681B68FA6812689169BA68126912024D
:102620000A439A6141E0FB681B68B968184600F0EC
:1026300033FAFB681B68FA681268D26942F0080234
:10264000DA61FB681B68FA681268D26922F004023A
:10265000DA61FB681B68FA681268D169BA681269A6
:102660000A43DA6121E0FB681B68B968184600F08C
:102670007DFAFB681B68FA681268D26942F400624E
:10268000DA61FB681B68FA681268D26922F480621A
:10269000DA61FB681B68FA681268D169BA68126966
:1026A00012020A43DA6100E000BFFB68012283F8EE
:1026B0003D20FB68002283F83C2000231846103799
:1026C000BD4680BD80B584B000AF786039607B685E
:1026D00093F83C30012B01D10223A6E07B68012254
:1026E00083F83C207B68022283F83D207B681B68CE
:1026F0009B68FB60FB6823F07703FB60FB6823F4B7
:102700007F43FB607B681B68FA689A603B681B68C4
:10271000402B67D0402B0BD8102B73D0102B02D836
:10272000002B6FD078E0202B6CD0302B6AD073E078
:10273000702B0DD0702B04D8502B33D0602B41D090
:102740006AE0B3F5805F66D0B3F5005F17D063E051
:102750007B6818683B6899683B685A683B68DB6827
:1027600000F0C9FA7B681B689B68FB60FB6843F05C
:102770007703FB607B681B68FA689A604CE07B68B3
:1027800018683B6899683B685A683B68DB6800F0EA
:10279000B2FA7B681B687A681268926842F48042D9
:1027A0009A6039E07B6818683B6859683B68DB6869
:1027B0001A4600F029FA7B681B685021184600F081
:1027C00080FA29E07B6818683B6859683B68DB68D9
:1027D0001A4600F047FA7B681B686021184600F033
:1027E00070FA19E07B6818683B6859683B68DB68D9
:1027F0001A4600F009FA7B681B684021184600F071
:1028000060FA09E07B681A683B681B681946104645
:1028100000F057FA00E000BF7B68012283F83D20FA
:102820007B68002283F83C20002318461037BD4601
:1028300080BD000080B485B000AF786039607B68EF
:102840001B68FB607B68294A93420BD07B68B3F11D
:10285000804F07D07B68264A934203D07B68254A85
:10286000934208D1FB6823F07003FB603B685B6810
:10287000FA681343FB607B681C4A93420BD07B6869
:10288000B3F1804F07D07B68194A934203D07B682D
:10289000184A934208D1FB6823F44073FB603B68FD
:1028A000DB68FA681343FB60FB6823F080023B6837
:1028B0005B691343FB607B68FA681A603B689A683F
:1028C0007B68DA623B681A687B689A627B68074AB1
:1028D000934203D13B681A697B681A637B680122C3
:1028E0005A6100BF1437BD4680BC7047002C0140C0
:1028F000000400400008004080B487B000AF78605A
:1029000039607B681B6A23F001027B681A627B686E
:102910001B6A7B617B685B683B617B689B69FB60D2
:10292000FB6823F07003FB60FB6823F00303FB608C
:102930003B681B68FA681343FB607B6923F0020362
:102940007B613B689B687A6913437B617B681C4AA7
:1029500093420CD17B6923F008037B613B68DB6801
:102960007A6913437B617B6923F004037B617B6895
:10297000134A934211D13B6923F480733B613B6955
:1029800023F400733B613B685B693A6913433B6125
:102990003B689B693A6913433B617B683A695A60BB
:1029A0007B68FA689A613B685A687B685A637B68FF
:1029B0007A691A6200BF1C37BD4680BC704700BFF1
:1029C000002C014080B487B000AF786039607B682C
:1029D0001B6A23F010027B681A627B681B6A7B61AA
:1029E0007B685B683B617B689B69FB60FB6823F4E9
:1029F000E043FB60FB6823F44073FB603B681B68AB
:102A00001B02FA681343FB607B6923F020037B61A0
:102A10003B689B681B017A6913437B617B681D4A95
:102A200093420DD17B6923F080037B613B68DB68B7
:102A30001B017A6913437B617B6923F040037B614F
:102A40007B68144A934213D13B6923F480633B6152
:102A50003B6923F400633B613B685B699B003A6917
:102A600013433B613B689B699B003A6913433B619D
:102A70007B683A695A607B68FA689A613B685A6871
:102A80007B689A637B687A691A6200BF1C37BD460F
:102A900080BC7047002C014080B487B000AF7860E4
:102AA00039607B681B6A23F480727B681A627B68DA
:102AB0001B6A7B617B685B683B617B68DB69FB60F1
:102AC000FB6823F07003FB60FB6823F00303FB60EB
:102AD0003B681B68FA681343FB607B6923F400734F
:102AE0007B613B689B681B027A6913437B617B684F
:102AF0001D4A93420DD17B6923F400637B613B68DF
:102B0000DB681B027A6913437B617B6923F4806372
:102B10007B617B68144A934213D13B6923F4805351
:102B20003B613B6923F400533B613B685B691B01DC
:102B30003A6913433B613B689B691B013A69134344
:102B40003B617B683A695A607B68FA68DA613B6886
:102B50005A687B68DA637B687A691A6200BF1C373F
:102B6000BD4680BC704700BF002C014080B487B0D8
:102B700000AF786039607B681B6A23F480527B6801
:102B80001A627B681B6A3B617B685B687B617B6860
:102B9000DB69FB60FB6823F4E043FB60FB6823F424
:102BA0004073FB603B681B681B02FA681343FB60C1
:102BB0003B6923F400533B613B689B681B033A6904
:102BC00013433B617B680F4A934209D17B6923F42D
:102BD00080437B613B685B699B017A6913437B613E
:102BE0007B687A695A607B68FA68DA613B685A6880
:102BF0007B681A647B683A691A6200BF1C37BD465D
:102C000080BC7047002C014080B487B000AFF860F2
:102C1000B9607A60FB681B6A7B61FB681B6A23F002
:102C20000102FB681A62FB689B693B613B6923F008
:102C3000F0033B617B681B013A6913433B617B698D
:102C400023F00A037B617A69BB6813437B61FB68ED
:102C50003A699A61FB687A691A6200BF1C37BD46FF
:102C600080BC704780B487B000AFF860B9607A600C
:102C7000FB681B6A23F01002FB681A62FB689B6901
:102C80007B61FB681B6A3B617B6923F470437B615A
:102C90007B681B037A6913437B613B6923F0A003C4
:102CA0003B61BB681B013A6913433B61FB687A696E
:102CB0009A61FB683A691A6200BF1C37BD4680BC46
:102CC000704780B485B000AF786039607B689B68DE
:102CD000FB60FB6823F07003FB603A68FB681343FA
:102CE00043F00703FB607B68FA689A6000BF143703
:102CF000BD4680BC704780B487B000AFF860B96053
:102D00007A603B60FB689B687B617B6923F47F434F
:102D10007B613B681A027B681A43BB6813437A697C
:102D200013437B61FB687A699A6000BF1C37BD461C
:102D300080BC704780B487B000AFF860B9607A603B
:102D4000BB6803F01F03012202FA03F37B61FB68F7
:102D50001A6A7B69DB431A40FB681A62FB681A6ACD
:102D6000BB6803F01F03796801FA03F31A43FB6899
:102D70001A6200BF1C37BD4680BC704780B485B066
:102D800000AF786039607B6893F83C30012B01D14B
:102D9000022332E07B68012283F83C207B68022218
:102DA00083F83D207B681B685B68FB607B681B6861
:102DB0009B68BB60FB6823F07003FB603B681B688B
:102DC000FA681343FB60BB6823F08003BB603B6879
:102DD0005B68BA681343BB607B681B68FA685A601B
:102DE0007B681B68BA689A607B68012283F83D2083
:102DF0007B68002283F83C20002318461437BD4628
:102E000080BC704780B485B000AF78603960002323
:102E1000FB607B6893F83C30012B01D102233DE03D
:102E20007B68012283F83C20FB6823F0FF023B68AB
:102E3000DB681343FB60FB6823F440723B689B68CC
:102E40001343FB60FB6823F480623B685B681343B9
:102E5000FB60FB6823F400623B681B681343FB6064
:102E6000FB6823F480523B681B691343FB60FB68DB
:102E700023F400523B685B691343FB60FB6823F457
:102E800080423B68DB691343FB607B681B68FA6820
:102E90005A647B68002283F83C20002318461437CC
:102EA000BD4680BC704780B582B000AF78607B685B
:102EB000002B01D101233FE07B6893F83930DBB26E
:102EC000002B06D17B68002283F83820786801F057
:102ED0002DFB7B68242283F839207B681B687A6885
:102EE0001268D26822F40052DA60786800F00AF9B9
:102EF0007B681B687A681268126922F490421A6132
:102F00007B681B687A681268526922F02A025A614B
:102F10007B681B687A681268D26842F40052DA60F3
:102F20007B680022DA637B68202283F839207B6883
:102F3000202283F83A20002318460837BD4680BD7A
:102F400080B588B002AFF860B9603B601346FB8083
:102F500000237B61FB6893F83930DBB2202B40F013
:102F60008280BB68002B02D0FB88002B01D101239B
:102F70007AE0FB6893F83830012B01D1022373E02B
:102F8000FB68012283F83820FB680022DA63FB68C3
:102F9000212283F83920FDF7BBFD7861FB68FA88B0
:102FA0009A84FB68FA88DA8441E0FB68DB8C9BB288
:102FB000013B9AB2FB68DA84FB689B68B3F5805FDB
:102FC00021D13B6800937B6900228021F86800F0E2
:102FD0004FF80346002B01D0032345E0BB683B615B
:102FE000FB681B683A691288C2F308025A60FB68E2
:102FF0001B69002B03D1BB680233BB6017E0BB68C1
:103000000133BB6013E03B6800937B6900228021A1
:10301000F86800F02DF80346002B01D0032323E0CD
:10302000FB681A68BB68591CB9601B785360FB6861
:10303000DB8C9BB2002BB8D13B6800937B690022EC
:103040004021F86800F014F80346002B01D0032358
:103050000AE0FB68202283F83920FB68002283F80D
:103060003820002300E0022318461837BD4680BDF3
:1030700080B584B000AFF860B9603B601346FB7167
:103080002CE0BB69B3F1FF3F28D0BB69002B07D010
:10309000FDF73EFD02463B68D21ABB699A421DD934
:1030A000FB681B68FA681268D26822F4D072DA6092
:1030B000FB681B68FA681268526922F001025A61C3
:1030C000FB68202283F83920FB68202283F83A200D
:1030D000FB68002283F8382003230FE0FB681B689D
:1030E0001A68BB681A40BB689A420CBF01230023D0
:1030F000DBB21A46FB799A42C3D000231846103738
:10310000BD4680BD90B585B000AF78607B681B6818
:103110007A681268126922F440517A68D2680A43C8
:103120001A617B689A687B681B691A437B685B69D4
:103130001343FB607B681A687B681B68DB6823F4B9
:10314000B05323F00C03F9680B43D3607B681B6812
:103150007A681268526922F440717A6892690A4367
:103160005A617B681B68524A93424ED1FEF78CFF2E
:10317000B8607B681968BA6813469B0013449A00CC
:103180001A447B685B689B00B2FBF3F3494AA2FBDD
:1031900003235B091801BA6813469B0013449A0085
:1031A0001A447B685B689B00B2FBF3F2414BA3FBC4
:1031B00002435B09642404FB03F3D31A1B0132337B
:1031C0003C4AA2FB03235B0903F0F0031844BA68EE
:1031D00013469B0013449A001A447B685B689B006B
:1031E000B2FBF3F2334BA3FB02435B09642404FB01
:1031F00003F3D31A1B0132332E4AA2FB03235B09CC
:1032000003F00F0303448B604DE0FEF729FFB86025
:103210007B681968BA6813469B0013449A001A44E5
:103220007B685B689B00B2FBF3F3224AA2FB03239B
:103230005B091801BA6813469B0013449A001A44AC
:103240007B685B689B00B2FBF3F21A4BA3FB024363
:103250005B09642404FB03F3D31A1B013233154AC0
:10326000A2FB03235B0903F0F0031844BA6813467A
:103270009B0013449A001A447B685B689B00B2FB76
:10328000F3F20C4BA3FB02435B09642404FB03F33E
:10329000D31A1B013233074AA2FB03235B0903F055
:1032A0000F0303448B6000BF1437BD4690BD00BFC1
:1032B000003801401F85EB5180B582B000AF00237C
:1032C0007B60FDF7CDFB00F05FF900F0D5FA00F070
:1032D000ABF900F0EFF900F0A5FA9E4B1B689D4A90
:1032E0001268D26842F02002DA604FF07E5000F09F
:1032F0002DFE0A2000F038FE974B1B68184600F0A0
:1033000025FE9648FFF78FF800219448FFF7E2F872
:1033100004219248FFF7DEF808219048FFF7DAF819
:103320000021042000F084FE5021082000F080FEDF
:10333000012202218A48FEF7A4FA01224FF400512B
:103340008848FEF79EFA01224FF480518448FEF728
:1033500098FA854B00221A7000F0ACFF834B0022D4
:103360001A6082498248FDF78BFE8148FDF7D4FC44
:1033700005217F48FDF77EFD0346002B05D17C48E3
:10338000FDF772FE02467B4B1A607B4B1B78DBB26B
:10339000002B06D000F08EFF00F0DCFA764B002206
:1033A0001A70714B1B78DBB2012B7BD16F4B002263
:1033B0001A606E496E48FDF763FE6D48FDF7ACFC80
:1033C0006420FDF7AFFB05216948FDF753FD034677
:1033D000002B05D16648FDF747FE0246654B1A6093
:1033E000644B1B68B3F5487FB8D300F075FE0A2123
:1033F000042000F01DFE4FF49670FDF793FB14219E
:10340000042000F015FE4FF49670FDF78BFB1E2193
:10341000042000F00DFE4FF49670FDF783FB23218E
:10342000042000F005FE4FF49670FDF77BFB0021B1
:10343000042000F0FDFD0A2000F058FD0346184668
:10344000FDF7C8FA02464D4B5A604C4B5B68194673
:103450004B4801F06DFA4FF47A70FDF763FB0122DF
:103460004FF400613E48FEF70CFA4FF47A70FDF716
:1034700059FB00224FF400613948FEF702FA00BF01
:10348000404B9B78DBB2232BFAD100F01DFB00F000
:10349000D5FB00F05FFC3860386800F075FE00F086
:1034A00037FE5BE7304B1B78DBB2022B7FF456AF65
:1034B0002E4B00221A602D492D48FDF7E1FD2C48C6
:1034C000FDF72AFC05212A48FDF7D4FC0346002B12
:1034D00005D12748FDF7C8FD0246264B1A60254B4B
:1034E0001B68B3F5487FFFF439AF00F0F5FD2321E9
:1034F000042000F09DFD4FF4FA70FDF713FB00214E
:10350000042000F095FD0A2000F0F0FC0346184668
:10351000FDF760FA0246194B5A6001224FF4006130
:103520000F48FEF7AEF94FF47A70FDF7FBFA002270
:103530004FF400610A48FEF7A4F900BF114B9B78D5
:10354000DBB2232BFAD1012000F01EFE00F0E0FDDB
:1035500004E700BFD8010020080000206C01002013
:10356000000801400010014098000020CC0100201C
:1035700038010020180200209900002020010020BE
:1035800078570008B400002080B594B000AF07F170
:10359000280328220021184601F0C1F907F114037D
:1035A00000221A605A609A60DA601A613B1D00229C
:1035B0001A605A609A60DA600223BB620123BB631F
:1035C0001023FB6300237B6407F128031846FEF7F2
:1035D00071F90346002B01D000F0C4FE0F237B617C
:1035E0000023BB610023FB6100233B6200237B625D
:1035F00007F1140300211846FEF7DCFB0346002BFD
:1036000001D000F0AFFE02237B600023FB603B1D76
:103610001846FEF76BFD0346002B01D000F0A2FE1A
:1036200000BF5037BD4680BD80B500AF1E4B1F4A5E
:103630001A601D4B00229A601B4B01221A731A4B11
:1036400000221A75184B4FF46022DA61164B0022E3
:103650005A60154B01221A611348FDF785FA03469B
:10366000002B01D000F07EFE114B00221A60104B9F
:1036700001225A600E4B00229A600D490A48FDF75C
:10368000FFFC0346002B01D000F06CFE084B082223
:103690001A6007490448FDF7F3FC0346002B01D0EC
:1036A00000F060FE00BF80BD380100200024014012
:1036B000CC01002080B596B000AF07F1480300228E
:1036C0001A605A609A60DA6007F1400300221A60BB
:1036D0005A6007F1240300221A605A609A60DA6087
:1036E0001A615A619A613B1D20220021184601F09F
:1036F00016F94A4B4A4A1A60484B14225A60474B03
:1037000000229A60454B41F6E852DA60434B0022B2
:103710001A61424B00225A61404B00229A613F4895
:10372000FEF756FE0346002B01D000F01BFE4FF4BF
:103730008053BB6407F1480319463848FEF7C2FFBF
:103740000346002B01D000F00DFE3448FEF78EFE3C
:103750000346002B01D000F005FE00233B6400234C
:103760007B6407F1400319462C48FFF707FB03462B
:10377000002B01D000F0F6FD60237B620023BB62CA
:103780000023FB6200233B6300237B630023BB63B6
:103790000023FB6307F12403002219461F48FEF7AC
:1037A000CBFE0346002B01D000F0DCFD07F1240323
:1037B000042219461948FEF7BFFE0346002B01D02C
:1037C00000F0D0FD07F12403082219461348FEF744
:1037D000B3FE0346002B01D000F0C4FD00237B6044
:1037E0000023BB600023FB6000233B6100237B615F
:1037F0004FF40053BB6100233B623B1D1946074851
:10380000FFF700FB0346002B01D000F0ABFD03489F
:1038100000F04CFE00BF5837BD4680BD6C01002053
:10382000002C014080B500AF114B124A1A60104BBA
:103830004FF4E1325A600E4B00229A600C4B00228A
:10384000DA600B4B00221A61094B0C225A61084BBB
:1038500000229A61064B0022DA610548FFF723FB3C
:103860000346002B01D000F07DFD00BF80BD00BFEE
:10387000D80100200044004080B588B000AF07F1B7
:10388000100300221A605A609A60DA602E4A2E4BAA
:103890009B6943F0100393612B4B9B6903F010036A
:1038A000FB60FB68284A284B9B6943F00403936143
:1038B000254B9B6903F00403BB60BB68224A224B83
:1038C0009B6943F0080393611F4B9B6903F0080356
:1038D0007B607B6800224FF400511C48FDF7D1FF4C
:1038E000002241F6D2011A48FDF7CBFF4FF40053F6
:1038F0003B6101237B610023BB610223FB6107F174
:10390000100319461148FDF74BFE41F6D2033B6107
:1039100001237B610023BB610223FB6107F11003DC
:1039200019460B48FDF73CFE20233B6100237B61D9
:103930000023BB6107F1100319460548FDF730FE6F
:1039400000BF2037BD4680BD00100240001001407E
:103950000008014080B582B000AF00237B60A6E084
:103960007A6813469B0013445B000133544AD35CCE
:10397000D8B254497A6813465B001344DB000B4409
:1039800002461A707A6813469B0013445B000233A8
:103990004B4AD35CD8B24B497A6813465B00134458
:1039A000DB000B44013302461A707A6813469B0011
:1039B00013445B0003334249184600F09DF8414927
:1039C0007A6813465B001344DB000B44083318602D
:1039D0007A6813469B0013445B0006333849184647
:1039E00000F0D2F837497A6813465B001344DB00D5
:1039F0000B440C33186033497A6813465B00134458
:103A0000DB000B441B78002B12D02E497A6813463A
:103A10005B001344DB000B4414331B68591C29481A
:103A20007A6813465B001344DB00034414331960C7
:103A300024497A6813465B001344DB000B440133CE
:103A40001B78002B12D01F497A6813465B00134481
:103A5000DB000B4414331B68591C1A487A68134660
:103A60005B001344DB0003441433196015497A6882
:103A700013465B001344DB000B440C331B68002B24
:103A800012D010497A6813465B001344DB000B44E4
:103A900014331B68591C0B487A6813465B001344A7
:103AA000DB000344143319607B6801337B607B685F
:103AB000022B7FF755AF00BF0837BD4680BD00BF62
:103AC000AC010020B800002080B400AF084B1B7888
:103AD000DAB2084B5A70064B5B78DAB2054B1A70B3
:103AE000034B00229A7000BFBD4680BC704700BFE8
:103AF000B40000202001002080B485B000AF7860C1
:103B000039600023FB600023BB6034E0BB68002BFE
:103B10000FD17B683A6813441B78302B09D07B683F
:103B20003A6813441B78303B642202FB03F3FB60CA
:103B30001EE0BB68012B0FD17B6801333A68134448
:103B40001B78A3F1300213469B0013445B001A4616
:103B5000FB681344FB600BE0BB68022B08D17B6859
:103B600002333A6813441B78303BFA681344FB6015
:103B7000BB680133BB60BB68022BC7DDFB6818461E
:103B80001437BD4680BC704780B485B000AF786004
:103B900039600023FB600023BB6045E0BB68002B5D
:103BA00010D17B683A6813441B78302B0AD07B68AD
:103BB0003A6813441B78303B4FF47A7202FB03F3EC
:103BC000FB602EE0BB68012B0CD17B6801333A68A7
:103BD00013441B78303B642202FB03F3FA6813445E
:103BE000FB601EE0BB68022B0FD17B6802333A6892
:103BF00013441B78A3F1300213469B0013445B006F
:103C00001A46FB681344FB600BE0BB68032B08D12A
:103C10007B6803333A6813441B78303BFA681344DB
:103C2000FB60BB680133BB60BB68032BB6DDFB6880
:103C300018461437BD4680BC7047000080B483B07E
:103C400000AF00237B60414B00221A613F4B0022F2
:103C50009A623E4B00221A6400237B606EE03B496F
:103C60007A6813465B001344DB000B4401331A7877
:103C7000374B5B789A4212D134497A6813465B001D
:103C80001344DB000B4410331B68591C2F487A681F
:103C900013465B001344DB000344103319602B49C7
:103CA0007A6813465B001344DB000B441A78284BF8
:103CB0001B789A4212D125497A6813465B00134457
:103CC000DB000B4410331B68591C20487A681346EC
:103CD0005B001344DB000344103319601B497A680E
:103CE00013465B001344DB000B440C331A68184B7B
:103CF0005B689A421FDB164B596814487A68134672
:103D00005B001344DB00034408331B68994212DB59
:103D10000E497A6813465B001344DB000B441033F2
:103D20001B68591C09487A6813465B001344DB0082
:103D30000344103319607B6801337B607B68022B7E
:103D40008DDD00BF0C37BD4680BC7047B800002039
:103D50002001002080B485B000AF0023FB60002369
:103D6000BB6000237B602FE01E497A6813465B002E
:103D70001344DB000B44143319681A487A6813465D
:103D80005B001344DB00034410331B68994218DCCA
:103D900014497A6813465B001344DB000B4410336C
:103DA0001A68FB689A420CDD0E497A6813465B007C
:103DB0001344DB000B4410331B68FB607B6801334A
:103DC000BB607B6801337B607B68022BCCDDBB680A
:103DD000002B01D10423BB60BB6818461437BD46D5
:103DE00080BC7047B800002080B584B000AF0023CD
:103DF000FB6000BF20212148FDF72CFD0346012B6D
:103E0000F8D00023FB7219E0012210211B48FDF7B6
:103E100038FDFB685B00FB6020211848FDF71AFDA8
:103E20000346002B02D0FB680133FB600022102107
:103E30001248FDF726FDFB7A0133FB72FB7A172B44
:103E4000E2D900237B600CE0012210210B48FDF732
:103E500018FD002210210948FDF713FD7B6801338E
:103E60007B607B68002BEFDDFB6883F40003FB6065
:103E7000FB6818461037BD4680BD00BF00080140F2
:103E800080B584B000AF78600023FB600023BB6086
:103E900008E0FFF7A9FF0246FB681344FB60BB681C
:103EA0000133BB60BA687B689A42F2DBFA687B68D0
:103EB00092FBF3F318461037BD4680BD90B583B032
:103EC00000AF78607868FFF7DBFF0246064B1B689F
:103ED000D31A1846FCF78EFA03460C4618462146BC
:103EE0000C37BD4690BD00BF9C000020B0B582B02D
:103EF00000AF78607868FFF7E1FF04460D460B4B92
:103F00001B681846FCF788FA02460B4620462946ED
:103F1000FCF700FC03460C4618462146FCF70AFD58
:103F2000034618460837BD46B0BD00BF0C00002050
:103F300080B483B000AF7860034A7B68136000BF31
:103F40000C37BD4680BC70479C00002080B483B015
:103F500000AF7860034A7B68136000BF0C37BD4632
:103F600080BC70470C00002090B585B000AF786031
:103F70007868FFF785FF03461846FCF73BFA0346CF
:103F80000C46C7E90234D7E90201FCF7ABFC034653
:103F90001846FFF7CDFF00BF1437BD4690BD0000A7
:103FA00080B584B000AF7860396000224FF4805152
:103FB0001E48FDF766FC4FF4FA70FCF7B3FD3B6852
:103FC000012B05D1012240211848FDF75AFC04E0DD
:103FD000002240211548FDF754FC0023FB6012E04D
:103FE000012280211148FDF74CFC0420FCF79AFDCA
:103FF000002280210D48FDF744FC0420FCF792FDCF
:10400000FB680133FB60FA687B689A42E8DB4FF497
:10401000FA70FCF787FD01224FF480510348FDF749
:1040200030FC00BF1037BD4680BD00BF0008014016
:1040300090B585B000AF03463960FB713868FCF776
:10404000D9F94FF00002224BFCF788F803460C46E2
:10405000184621461CA3D3E90023FCF731FA034696
:104060000C4618462146FCF765FC0346FB60FB79CD
:10407000002B07D1174B1C68F868FCF7D1FC0346EE
:1040800063631CE0FB79042B07D1124B1C68F868B2
:10409000FCF7C6FC0346A36311E0FB79082B07D1AC
:1040A0000C4B1C68F868FCF7BBFC0346E36306E0B6
:1040B000084B1C68F868FCF7B3FC0346236400BF98
:1040C0001437BD4690BD00BF039D36D06903114033
:1040D000008046406C01002080B500AF70210820B0
:1040E000FFF7A6FF4FF47A70FCF71CFD262108208D
:1040F000FFF79EFF4FF47A70FCF714FD5021082063
:10410000FFF796FF4FF47A70FCF70CFD00BF80BDFF
:1041100080B500AF0A210420FFF78AFF4FF49670A4
:10412000FCF700FD19210420FFF782FF4FF4967081
:10413000FCF7F8FC28210420FFF77AFF4FF4967073
:10414000FCF7F0FC37210420FFF772FF4FF4967064
:10415000FCF7E8FC46210420FFF76AFF4FF4967055
:10416000FCF7E0FC50210420FFF762FF4FF496704B
:10417000FCF7D8FC00210420FFF75AFF4FF47A70B7
:10418000FCF7D0FC00BF80BD80B582B000AF786086
:104190007B68013B032B00F2878001A252F823F0D9
:1041A000B1410008EF4100082D4200086B420008B1
:1041B0003F4B1B68022B04D100216420FFF7F0FE67
:1041C00011E03B4B1B68032B04D10021C820FFF7F3
:1041D000E7FE08E0364B1B68042B04D100214FF4A6
:1041E0009670FFF7DDFE324B01221A605CE0304B27
:1041F0001B68012B05D100214FF49670FFF7D0FE0C
:1042000010E02B4B1B68032B04D100216420FFF727
:10421000C7FE07E0264B1B68042B03D10021C820F2
:10422000FFF7BEFE224B02221A603DE0204B1B68C6
:10423000012B04D10021C820FFF7B2FE11E01C4B76
:104240001B68022B05D100214FF49670FFF7A8FEE2
:1042500007E0174B1B68042B03D100216420FFF7F4
:104260009FFE134B03221A601EE0114B1B68012BAB
:1042700004D100216420FFF793FE11E00C4B1B6872
:10428000022B04D10021C820FFF78AFE08E0084B6A
:104290001B68032B04D100214FF49670FFF780FEBA
:1042A000034B04221A6000BF00BF0837BD4680BD23
:1042B0001000002080B500AF00224FF48051244848
:1042C000FDF7DFFA002240212148FDF7DAFA214B01
:1042D00008221A601F492048FCF7D2FE1E48FCF74E
:1042E0001BFD05211C48FCF7C5FD0346002B1CD116
:1042F0001948FCF7B9FE0246184B1A6015E0012276
:1043000080211348FDF7BDFA0820FCF70BFC0022C2
:1043100080210F48FDF7B5FA0820FCF703FC0E4892
:10432000FCF7A2FE02460D4B1A600C4B1B680A2BD1
:10433000E5D84FF4FA70FCF7F5FB094B01221A603F
:1043400001224FF480510248FDF79BFA00BF80BD67
:1043500000080140CC010020380100206801002045
:104360001000002080B400AF00BFBD4680BC704785
:1043700080B582B000AF7860391D4FF6FF7301221F
:104380000348FEF7DDFD7B6818460837BD4680BD53
:10439000D801002080B485B000AF154A144B9B694A
:1043A00043F001039361124B9B6903F00103BB606F
:1043B000BB680F4A0E4BDB6943F08053D3610C4B53
:1043C000DB6903F080537B607B680A4B5B68FB60B2
:1043D000FB6823F0E063FB60FB6843F00073FB6065
:1043E000044AFB68536000BF1437BD4680BC704769
:1043F000001002400000014080B588B000AF786036
:1044000007F1100300221A605A609A60DA607B6834
:104410001B68144A934221D1134A134B9B6943F4FE
:1044200000739361104B9B6903F40073FB60FB689E
:104430000D4A0D4B9B6943F0040393610A4B9B6942
:1044400003F00403BB60BB6801233B6103237B6172
:1044500007F1100319460548FDF7A2F800BF203701
:10446000BD4680BD0024014000100240000801400C
:1044700080B485B000AF78607B681B68094A9342BE
:104480000BD1094A084B9B6943F400639361064BC7
:104490009B6903F40063FB60FB6800BF1437BD46F3
:1044A00080BC7047002C01400010024080B588B0ED
:1044B00000AF786007F1100300221A605A609A601A
:1044C000DA607B681B68164A934225D1154A154B62
:1044D0009B6943F004039361124B9B6903F004034F
:1044E000FB60FB684FF4A0633B6102237B61022306
:1044F000FB6107F1100319460B48FDF751F84FF423
:1045000000733B6102237B610323FB6107F110030E
:1045100019460548FDF744F800BF2037BD4680BD69
:10452000002C0140001002400008014080B588B016
:1045300000AF786007F1100300221A605A609A6099
:10454000DA607B681B681F4A934237D11E4A1E4BB4
:10455000DB6943F40033D3611B4BDB6903F40033A5
:10456000FB60FB68184A184B9B6943F00403936196
:10457000154B9B6903F00403BB60BB6804233B61DC
:1045800002237B610323FB6107F1100319460F48E7
:10459000FDF706F808233B6100237B610023BB6124
:1045A00007F1100319460948FCF7FAFF0022002121
:1045B0002620FCF7BEFF2620FCF7D7FF00BF2037E0
:1045C000BD4680BD0044004000100240000801408C
:1045D00080B400AF00BFBD4680BC704780B400AF60
:1045E000FEE780B400AFFEE780B400AFFEE780B422
:1045F00000AFFEE780B400AF00BFBD4680BC70478F
:1046000080B400AF00BFBD4680BC704780B400AF2F
:1046100000BFBD4680BC704780B500AFFCF766FAAE
:1046200000BF80BD80B500AF224B1B68224A526894
:10463000D1B2224AD1541F4B1B68204AD35CDBB253
:10464000232B2FD11B4B1B68022B06D11C4B1B4A63
:104650001188927819809A7020E020221749194811
:1046600000F052F9174B9B7FDBB2303BDAB2164BAE
:104670001A70154B1B78DBB2002B06D000224FF4CA
:1046800000511248FDF7FDF805E001224FF40051FA
:104690000E48FDF7F6F80E4B01221A70054B00226A
:1046A0001A6004E0034B1B680133024A136000BF29
:1046B00080BD00BFA0000020004400400001002099
:1046C000B4000020AC010020980000200010014040
:1046D0009900002090B587B000AFF860B9607A60AB
:1046E00000237B610AE0BC68631CBB60AFF3008001
:1046F0000346DBB223707B6901337B617A697B6897
:104700009A42F0DB7B6818461C37BD4690BD80B5E9
:1047100086B000AFF860B9607A6000237B6109E081
:10472000BB685A1CBA601B781846FFF721FE7B69EC
:1047300001337B617A697B689A42F1DB7B681846BA
:104740001837BD4680BD000080B584B000AF7860EA
:10475000114B1B68002B02D10F4B104A1A600E4BF5
:104760001B68FB600C4B1A687B6813446A469342D3
:1047700007D900F09FF802460C2313604FF0FF3377
:1047800006E0054B1A687B681344034A1360FB6814
:1047900018461037BD4680BDA4000020200200202E
:1047A00080B483B000AF78604FF0FF3318460C3709
:1047B000BD4680BC704780B483B000AF786039607C
:1047C0003B684FF400525A60002318460C37BD4630
:1047D00080BC704780B483B000AF78600123184676
:1047E0000C37BD4680BC704780B485B000AFF86020
:1047F000B9607A60002318461437BD4680BC704704
:1048000080B400AF154A154B1B6843F001031360D9
:104810001249124B5A68124B13404B600F4A0F4B10
:104820001B6823F0847323F4803313600B4A0B4B13
:104830001B6823F480231360084A084B5B6823F449
:10484000FE035360054B4FF41F029A60054B4FF077
:1048500000629A6000BFBD4680BC704700100240F5
:104860000000FFF800ED00E0002103E00B4B5B5877
:10487000435004310A480B4B42189A42F6D30A4A75
:1048800002E0002342F8043B084B9A42F9D3FFF7B9
:10489000B7FF00F015F8FEF70FFD70473458000819
:1048A000000000207C0000207C000020200200206E
:1048B000FEE70000014B1868704700BF1800002099
:1048C00070B500250C4E0D4CA41BA410A54209D1B7
:1048D00000F032FF00250A4E0A4CA41BA410A5428A
:1048E00005D170BD56F8253098470135EEE756F8EA
:1048F000253098470135F2E72C5800082C5800085D
:104900002C5800083058000810B5431E0A44914244
:1049100000D110BD11F8014B03F8014FF7E7034632
:104920000244934200D1704703F8011BF9E70000ED
:104930000FB40A4B13B51C6824B1A36913B9204600
:1049400000F04EF805AB049AA1682046019300F0F0
:1049500057F902B0BDE8104004B0704718000020BD
:10496000014900F0A9B800BFD9540008002310B5D0
:10497000044603604360836081814366C2810361B2
:1049800043618361194608225C30FFF7C8FF054B7D
:1049900024626362044BA362044BE362044B23630F
:1049A00010BD00BF7D5100089F510008D75100087D
:1049B000FB51000870B568254A1E55430E4605F1A7
:1049C000740100F097F8044640B1002180E84200ED
:1049D0000C30A06005F16802FFF7A1FF204670BD12
:1049E000836910B5044633BB8364C3640365124B0B
:1049F000124A1B688262984204BF0123836100F05F
:104A00001FF86060204600F01BF8A060204600F010
:104A100017F80022E06004216068FFF7A7FF012279
:104A20000921A068FFF7A2FF02221221E068FFF728
:104A30009DFF0123A36110BD945700086149000840
:104A4000F8B51C4B07461E68B36913B93046FFF72B
:104A5000C7FF4836B4687368013B03D5336833B188
:104A60003668F7E7B4F90C506DB16834F4E7042107
:104A70003846FFF79FFF30600028F1D10C23044631
:104A80003B602046F8BD4FF6FF73E3810123656666
:104A9000A3812560A560656025616561A561082227
:104AA000294604F15C00FFF73AFF6563A563A5643E
:104AB000E564E6E7945700082DE9F8438046894607
:104AC000002600F1480414B93046BDE8F883A56813
:104AD0006768013F01D52468F5E7AB89012B07D949
:104AE000B5F90E30013303D029464046C847064386
:104AF0006835EEE770B5CD1C25F0030508350C2DA3
:104B000038BF0C25002D064601DBA94203D90C2332
:104B10003360002070BD00F08DFD234A14682146EB
:104B200091B9224C23681BB9304600F017FB206076
:104B30002946304600F012FB431C26D10C23304698
:104B4000336000F078FDE4E70B685B1B1AD40B2B95
:104B50000FD90B60CC18CD50304600F06CFD04F13D
:104B60000B00231D20F00700C31A1BD05A42E2504D
:104B700070BD8C420BBF63684B681360636018BFE5
:104B80000C46E9E70C464968CAE7C41C24F0030454
:104B9000A04205D0211A304600F0E0FA0130CDD015
:104BA0002560D9E770BD00BFA8000020AC00002040
:104BB000936810B4013B002B936008DA9469A34218
:104BC00002DBCBB20A2B02D110BC00F01BBB136876
:104BD000581C10601970C8B210BC7047F8B5064672
:104BE0000F461446D518AC4201D1002007E03A46E2
:104BF00014F8011B3046FFF7DBFF431CF3D1F8BD6F
:104C00002DE9F04F9DB00C4617460393064618B1A8
:104C100083690BB9FFF7E4FE7C4B9C4257D1746863
:104C2000A38918075DD52369002B5AD00023099367
:104C300020238DF8293030234FF0010B8DF82A30D6
:104C4000B846454615F8013B002B55D1B8EB070A8D
:104C50000BD053463A4621463046FFF7BFFF01309E
:104C600000F0C480099B5344099398F80030002B4E
:104C700000F0BC8000234FF0FF32049307930592AD
:104C800006938DF853301A9305222978604800F076
:104C9000C3FC05F10108049B002831D1D90644BFAB
:104CA00020228DF853201A0744BF2B228DF8532061
:104CB0002A782A2A2CD000210A20079AA84698F898
:104CC00000300135303B092B6DD971B326E0514BD3
:104CD0009C4201D1B468A3E74F4B9C4208BFF468E3
:104CE0009EE72146304600F0F1FA00289ED04FF0B2
:104CF000FF301DB0BDE8F08F252BA7D0A846A0E758
:104D0000434A4546801A0BFA00F018430490BBE76B
:104D1000039A111D12680391002A01DB079204E037
:104D2000524243F002030792049398F800302E2B6E
:104D300010D198F8013008F101012A2B37D1039BDB
:104D400008F102081A1D1B680392002BB8BF4FF030
:104D5000FF330593314D032298F80010284600F0E8
:104D60005BFC40B14023401B03FA00F0049B08F1B8
:104D700001080343049398F800100622284808F11C
:104D800001078DF8281000F047FC002834D0254B8F
:104D900003BB039B073323F0070308330393099BEB
:104DA0004B4409934CE700FB0232012186E70023C4
:104DB0000A2518460593884698F800200131303AB4
:104DC000092A03D9002BC5D00590C3E705FB0020B5
:104DD0000123F0E703AB00932246134B04A93046AE
:104DE000AFF30080B0F1FF3F8146D8D1A3895B06C5
:104DF0003FF57DAF09987CE703AB009322460A4B51
:104E000004A9304600F08AF8ECE700BFB857000864
:104E1000F8570008D857000898570008FE570008B0
:104E20000258000800000000DD4B00082DE9F047A3
:104E300091461F468A680B6906469342B8BF1346DF
:104E4000C9F8003091F843200C46DDF8208012B1FB
:104E50000133C9F800302368990642BFD9F8003001
:104E60000233C9F80030256815F0060507D104F1B2
:104E7000190AE368D9F800209B1A9D422ADB94F8AE
:104E800043302268003318BF012392062FD404F167
:104E9000430239463046C047013022D02368E568D6
:104EA00003F00603042B18BF0025D9F800204FF0AB
:104EB000000908BFAD1AA368226908BF25EAE57595
:104EC0009342C4BF9B1AED181A344D451BD10020E4
:104ED000BDE8F0870123524639463046C0470130CD
:104EE00003D14FF0FF30BDE8F0870135C1E7302036
:104EF000E11881F843005A1C94F84510224402330B
:104F000082F84310C3E70123224639463046C047A2
:104F10000130E6D009F10109D7E700002DE9F0439F
:104F200017460A7E85B06E2A984606460C460C9BAC
:104F300001F1430E00F0BC801AD8632A2ED00AD8A3
:104F4000002A00F0C880582A00F08A8004F1420547
:104F500084F842202AE0642A01D0692AF6D1216827
:104F60001A6811F0800F23D0111D1960136827E013
:104F7000732A00F0B48008D86F2A2AD0702AE5D1AD
:104F80000A6842F020020A6003E0752A21D0782ADC
:104F9000DCD178226F4984F8452064E01A6801F179
:104FA0004205111D1960136884F842300123A3E003
:104FB00011F0400F02F104011960D7D0B2F90030AE
:104FC000002B03DA2D225B4284F8432062490A2237
:104FD00017E02068196810F0800F03D0081D1860D2
:104FE0000B6806E010F0400F01F104001860F7D0E4
:104FF0000B886F2A14BF0A2208225749002084F820
:1050000043006568002DA560C0F29C80206820F0F8
:1050100004002060002B3FD1002D40F095807546A4
:10502000082A0BD12368DA0708D5236962689A42F7
:10503000DEBF302305F8013C05F1FF35AEEB05037B
:105040002361CDF800803B4603AA21463046FFF796
:10505000EDFE013055D14FF0FF3005B0BDE8F083D3
:1050600081F845203C492268186812F0800F00F151
:1050700004051D6001D0036802E05506FBD50388D6
:10508000D00744BF42F0200222601BB9226822F000
:10509000200222601022B1E77546B3FBF2F002FB5A
:1050A0001033CB5C05F8013D03460028F5D1B7E786
:1050B00008681A6810F0800F496904D0101D186044
:1050C0001368196007E010F0400F02F10400186047
:1050D0001368F6D01980002375462361B1E71A687A
:1050E000111D1960156800216268284600F094FAC5
:1050F00008B1401B606063682361002384F843307B
:105100009FE723692A4639463046C0470130A2D07E
:1051100023689B0707D5002504F11909E368039A62
:105120009B1A9D4205DBE068039B9842B8BF184676
:1051300093E701234A4639463046C04701308AD0BA
:105140000135EBE7002BA7D10B7804F1420584F879
:10515000423065E71A5800080958000838B500239E
:10516000054C054608462360FFF7EEFA431C02D1C2
:10517000236803B12B6038BD1C02002010B50C461B
:10518000B1F90E1000F0A4FA0028ABBF636DA3893B
:105190001B1823F48053ACBF6365A38110BD2DE9B8
:1051A000F0411F468B890546DB050C46164605D5A2
:1051B00002230022B1F90E1000F0B8F9A38932469B
:1051C00023F48053A381B4F90E103B462846BDE872
:1051D000F04100F069B810B50C46B1F90E1000F0BE
:1051E000A5F9431CA38915BF606523F4805343F4DC
:1051F0008053A38118BFA38110BDB1F90E1000F038
:10520000D3B80000F8B50E461446054618B18369B8
:105210000BB9FFF7E5FB214B9C422AD16C68A369CF
:10522000A360A3891A072ED5236963B32369206875
:10523000F6B2C01A63693746984204DB2146284615
:1052400000F04AF928BBA3680130013BA360236842
:105250005A1C22601E706369984204D0A389DB0740
:1052600019D50A2E17D12146284600F035F990B1FC
:105270000FE00B4B9C4201D1AC68D0E7094B9C423C
:1052800008BFEC68CBE72146284600F01FF800284D
:10529000CCD04FF0FF373846F8BD00BFB8570008F4
:1052A000D85700089857000838B5054608461146F3
:1052B0000022054C22601A46FFF729FA431C02D14E
:1052C000236803B12B6038BD1C020020324B70B53F
:1052D0001D6806460C4625B1AB6913B92846FFF791
:1052E0007FFB2E4B9C420FD16C68B4F90C309AB204
:1052F00015072CD4D00611D40922326043F04003A4
:10530000A3814FF0FF3070BD254B9C4201D1AC68AA
:10531000EBE7244B9C4208BFEC68E6E7510712D547
:10532000616B41B104F14403994202D0304600F070
:1053300083F900236363A38923F02403A38100235B
:10534000636023692360A38943F00803A381236971
:105350004BB9A38903F42073B3F5007F03D0214632
:10536000304600F019F9A28912F001030CD0002395
:10537000A36063695B42A361236953B9B4F90C303C
:1053800013F08000BAD170BD920758BF6369A36063
:10539000F2E70020F7E700BF18000020B857000828
:1053A000D85700089857000838B50023054C054623
:1053B00008462360FFF7F4F9431C02D1236803B1C8
:1053C0002B6038BD1C0200208A892DE9F04105467A
:1053D00010070C465AD44B68002B05DC0B6C002BD5
:1053E00002DC0020BDE8F081E66A002EF9D000233F
:1053F00012F480522F682B6033D0606DA3895A0756
:1054000005D56368C01A636B0BB1236CC01A002307
:105410000246E66A216A2846B047431CA38906D1A2
:1054200029681D294BD82B4ACA40D60747D50022E8
:1054300062602269D904226004D5421C01D12B6824
:1054400003B96065616B2F600029CAD004F1440381
:10545000994202D0284600F0EFF800206063BDE8D2
:10546000F081216A01232846B047411CC6D12B6830
:10547000002BC3D01D2B01D0162B01D12F60B0E71C
:10548000A38943F04003A381BDE8F0810F69002F99
:10549000A7D0930718BF00230E6808BF4B69A6EB7F
:1054A00007080F608B60B8F1000F9ADD43463A465B
:1054B000216A2846A66AB047002807DCA38943F082
:1054C0004003A3814FF0FF30BDE8F0810744A8EB13
:1054D0000008E8E70100402038B50B6905460C4696
:1054E000DBB118B183690BB9FFF77AFA0C4B9C4218
:1054F00009D16C68B4F90C307BB121462846BDE86F
:105500003840FFF761BF074B9C4201D1AC68F1E71F
:10551000054B9C4208BFEC68ECE7002038BD00BF9B
:10552000B8570008D85700089857000838B50546FE
:10553000084611460022054C22601A46FFF754F92E
:10554000431C02D1236803B12B6038BD1C0200202C
:1055500070B50E46B1F90E1090B0002914461D46E4
:1055600007DA00232B60B3891A0610D44FF4806346
:105570000EE001AA00F0BEF80028F2DB029A02F465
:105580007042A2F500535A425A412A60EEE7402386
:105590000020236010B070BD8B8973B59D0706464F
:1055A0000C4607D504F1470323602361012363619F
:1055B00002B070BD01AB6A46FFF7CAFF009905460D
:1055C0003046FFF797FA48B9B4F90C309A05EFD492
:1055D00023F0030343F00203A381E3E70D4BB3621F
:1055E000A389206043F08003A381009B2061636155
:1055F000019B5BB1B4F90E10304600F08DF828B174
:10560000A38923F0030343F00103A381A3891D436E
:10561000A581CDE76149000810B5C9B202449042A6
:10562000034601D1002010BD1C7801308C42F6D118
:10563000184610BD7047704738B50546002943D05D
:1056400051F8043C0C1F002BB8BFE418FFF7F2FF21
:105650001E4A1368104633B9636014602846BDE8DB
:105660003840FFF7E8BFA3420BD921686218934284
:1056700001BF1A685B685218226063600460EDE73E
:1056800013465A680AB1A242FAD919685818A042BA
:105690000BD120680144581882421960DED110688D
:1056A0005268014419605A60D8E702D90C232B6074
:1056B000D4E7206821188A4201BF1168526809188E
:1056C000216062605C60C9E738BD00BFA8000020AF
:1056D00038B50546084611460022054C22601A4698
:1056E000FEF7F8FF431C02D1236803B12B6038BDDD
:1056F0001C02002038B50023064C0546084611461A
:105700002360FFF758F8431C02D1236803B12B60D4
:1057100038BD00BF1C02002038B50023054C0546EB
:1057200008462360FFF756F8431C02D1236803B1F3
:105730002B6038BD1C020020F8B500BFF8BC08BCC7
:105740009E467047F8B500BFF8BC08BC9E4670473F
:1057500002030405060708090A0B0C0D0E0F1010B2
:105760000102000002030405060708090A0B0C0DDC
:105770000E0F10100102000025640A000000000056
:1057800000000000010203040607080900000000F1
:10579000010203041C0000200000000000000000C3
:1057A00000000000000000000000000000000000F9
:1057B00000000000000000000000000000000000E9
:1057C00000000000000000000000000000000000D9
:1057D00000000000000000000000000000000000C9
:1057E00000000000000000000000000000000000B9
:1057F0000000000000000000232D302B2000686C0A
:105800004C006566674546470030313233343536E3
:10581000373839414243444546003031323334351C
:0C58200036373839616263646566000049
:04582C00350100083A
:04583000110100085A
:105834001000000001000000000061C40000803F6F
:10584400010000000024F4001C00002000000000FF
:10585400B8570008D85700089857000800000000FF
:105864000000000000000000000000000000000034
:105874000000000000000000000000000000000024
:105884000000000000000000000000000000000014
:105894000000000000000000000000000000000004
:0C58A400000000000000000000000000F8
:04000005080048693E
:00000001FF
