:020000040800F2
:1000000000500020DD3F0008453D0008513D00083C
:10001000573D00085D3D0008633D000800000000FA
:10002000000000000000000000000000693D000822
:10003000753D000800000000813D00088D3D00086E
:1000400025400008254000082540000825400008FC
:1000500025400008254000082540000825400008EC
:1000600025400008254000082540000825400008DC
:1000700025400008254000082540000825400008CC
:1000800025400008254000082540000825400008BC
:1000900025400008254000082540000825400008AC
:1000A000254000082540000825400008254000089C
:1000B000254000082540000825400008254000088C
:1000C000254000082540000825400008254000087C
:1000D0002540000825400008993D000825400008FB
:1000E00025400008254000082540000800000000C9
:1000F0000000000000000000000000000000000000
:0C01000000000000000000005FF808F1A3
:1001100010B5054C237833B9044B13B10448AFF341
:1001200000800123237010BD7C000020000000002F
:100130007C49000808B5034B1BB103490348AFF3E2
:10014000008008BD00000000800000207C490008FD
:1001500081F0004102E000BF83F0004330B54FEA78
:1001600041044FEA430594EA050F08BF90EA020FE5
:100170001FBF54EA000C55EA020C7FEA645C7FEA78
:10018000655C00F0E2804FEA5454D4EB5555B8BF9B
:100190006D420CDD2C4480EA020281EA030382EA0C
:1001A000000083EA010180EA020281EA0303362D9E
:1001B00088BF30BD11F0004F4FEA01314FF4801C71
:1001C0004CEA113102D0404261EB410113F0004F83
:1001D0004FEA03334CEA133302D0524263EB43033A
:1001E00094EA050F00F0A780A4F10104D5F1200ED8
:1001F0000DDB02FA0EFC22FA05F2801841F1000133
:1002000003FA0EF2801843FA05F359410EE0A5F106
:1002100020050EF1200E012A03FA0EFC28BF4CF037
:10022000020C43FA05F3C01851EBE37101F00045ED
:1002300007D54FF0000EDCF1000C7EEB00006EEBFA
:100240000101B1F5801F1BD3B1F5001F0CD3490884
:100250005FEA30004FEA3C0C04F101044FEA4452DB
:1002600012F5800F80F09A80BCF1004F08BF5FEA62
:10027000500C50F1000041EB045141EA050130BD42
:100280005FEA4C0C404141EB010111F4801FA4F1E5
:100290000104E9D191F0000F04BF01460020B1FA3A
:1002A00081F308BF2033A3F10B03B3F120020CDA72
:1002B0000C3208DD02F1140CC2F10C0201FA0CF050
:1002C00021FA02F10CE002F11402D8BFC2F1200CB5
:1002D00001FA02F120FA0CFCDCBF41EA0C0190406B
:1002E000E41AA2BF01EB0451294330BD6FEA0404B4
:1002F0001F3C1CDA0C340EDC04F11404C4F120029F
:1003000020FA04F001FA02F340EA030021FA04F3B0
:1003100045EA030130BDC4F10C04C4F1200220FA07
:1003200002F001FA04F340EA0300294630BD21FA45
:1003300004F0294630BD94F0000F83F4801306BF0B
:1003400081F480110134013D4EE77FEA645C18BFFF
:100350007FEA655C29D094EA050F08BF90EA020F96
:1003600005D054EA000C04BF1946104630BD91EA8E
:10037000030F1EBF0021002030BD5FEA545C05D191
:100380004000494128BF41F0004130BD14F58004D0
:100390003CBF01F5801130BD01F0004545F0FE4144
:1003A00041F470014FF0000030BD7FEA645C1ABF79
:1003B000194610467FEA655C1CBF0B46024650EAB0
:1003C000013406BF52EA033591EA030F41F40021DC
:1003D00030BD00BF90F0000F04BF0021704730B562
:1003E0004FF4806404F132044FF000054FF0000137
:1003F00050E700BF90F0000F04BF0021704730B5F8
:100400004FF4806404F1320410F0004548BF4042CC
:100410004FF000013EE700BF42004FEAE2014FEA21
:1004200031014FEA02701FBF12F07F4393F07F4FFC
:1004300081F06051704792F0000F14BF93F07F4F2E
:10044000704730B54FF4607401F0004521F0004171
:1004500020E700BF50EA010208BF704730B54FF0F7
:1004600000050AE050EA010208BF704730B511F0FC
:10047000004502D5404261EB41014FF4806404F134
:1004800032045FEA915C3FF4DCAE4FF003025FEAB6
:10049000DC0C18BF03325FEADC0C18BF033202EB3E
:1004A000DC02C2F1200300FA03FC20FA02F001FA98
:1004B00003FE40EA0E0021FA02F11444C1E600BF37
:1004C00070B54FF0FF0C4CF4E06C1CEA11541DBFEA
:1004D0001CEA135594EA0C0F95EA0C0F00F0DEF8B5
:1004E0002C4481EA030621EA4C5123EA4C5350EA9A
:1004F000013518BF52EA033541F4801143F48013EB
:1005000038D0A0FB02CE4FF00005E1FB02E506F07B
:100510000042E0FB03E54FF00006E1FB03569CF0D0
:10052000000F18BF4EF0010EA4F1FF04B6F5007FD6
:1005300064F5407404D25FEA4E0E6D4146EB060648
:1005400042EAC62141EA55514FEAC52040EA5E50D1
:100550004FEACE2EB4F1FD0C88BFBCF5E06F1ED87B
:10056000BEF1004F08BF5FEA500E50F1000041EBB2
:10057000045170BD06F0004646EA010140EA02005F
:1005800081EA0301B4EB5C04C2BFD4EB0C0541EA81
:10059000045170BD41F480114FF0000E013C00F396
:1005A000AB8014F1360FDEBF002001F0004170BDBA
:1005B000C4F10004203C35DA0C341BDC04F11404D3
:1005C000C4F1200500FA05F320FA04F001FA05F25F
:1005D00040EA020001F0004221F0004110EBD3702C
:1005E00021FA04F642EB06015EEA430E08BF20EA58
:1005F000D37070BDC4F10C04C4F1200500FA04F3FB
:1006000020FA05F001FA04F240EA020001F000418C
:1006100010EBD37041F100015EEA430E08BF20EAFF
:10062000D37070BDC4F1200500FA05F24EEA020E47
:1006300020FA04F301FA05F243EA020321FA04F076
:1006400001F0004121FA04F220EA020000EBD3702D
:100650005EEA430E08BF20EAD37070BD94F0000F2D
:100660000FD101F00046400041EB010111F4801F61
:1006700008BF013CF7D041EA060195F0000F18BF12
:10068000704703F00046520043EB030313F4801F4E
:1006900008BF013DF7D043EA0603704794EA0C0F08
:1006A0000CEA135518BF95EA0C0F0CD050EA41061E
:1006B00018BF52EA4306D1D181EA030101F000419B
:1006C0004FF0000070BD50EA410606BF10461946C3
:1006D00052EA430619D094EA0C0F02D150EA0136CF
:1006E00013D195EA0C0F05D152EA03361CBF104610
:1006F00019460AD181EA030101F0004141F0FE41AF
:1007000041F470014FF0000070BD41F0FE4141F432
:10071000780170BD70B54FF0FF0C4CF4E06C1CEA32
:1007200011541DBF1CEA135594EA0C0F95EA0C0FE7
:1007300000F0A7F8A4EB050481EA030E52EA0335A2
:100740004FEA013100F088804FEA03334FF08055C3
:1007500045EA131343EA12634FEA022245EA1115F0
:1007600045EA10654FEA00260EF000419D4208BFA1
:10077000964244F1FD0404F5407402D25B084FEA4E
:100780003202B61A65EB03055B084FEA32024FF4FA
:1007900080104FF4002CB6EB020E75EB030E22BF57
:1007A000B61A754640EA0C005B084FEA3202B6EB17
:1007B000020E75EB030E22BFB61A754640EA5C00C6
:1007C0005B084FEA3202B6EB020E75EB030E22BF56
:1007D000B61A754640EA9C005B084FEA3202B6EB57
:1007E000020E75EB030E22BFB61A754640EADC0016
:1007F00055EA060E18D04FEA051545EA16754FEA78
:1008000006164FEAC30343EA52734FEAC2025FEA95
:100810001C1CC0D111F4801F0BD141EA00014FF024
:1008200000004FF0004CB6E711F4801F04BF0143F5
:100830000020B4F1FD0C88BFBCF5E06F3FF6AFAE11
:10084000B5EB030C04BFB6EB020C5FEA500C50F1A1
:10085000000041EB045170BD0EF0004E4EEA113124
:1008600014EB5C04C2BFD4EB0C0541EA045170BD2B
:1008700041F480114FF0000E013C90E645EA060E6F
:100880008DE60CEA135594EA0C0F08BF95EA0C0F9D
:100890003FF43BAF94EA0C0F0AD150EA01347FF4E5
:1008A00034AF95EA0C0F7FF425AF104619462CE7BC
:1008B00095EA0C0F06D152EA03353FF4FDAE10461F
:1008C000194622E750EA410618BF52EA43067FF470
:1008D000C5AE50EA41047FF40DAF52EA43057FF400
:1008E000EBAE12E74FEA410212F5001215D211D514
:1008F0006FF47873B3EB625212D94FEAC12343F01D
:10090000004343EA505311F0004F23FA02F018BF9E
:10091000404270474FF00000704750EA013005D167
:1009200011F0004008BF6FF0004070474FF000002A
:10093000704700BF4FEA4102B2F1E04324BFB3F574
:10094000001CDCF1FE5C0DD901F0004C4FEAC00246
:100950004CEA5070B2F1004F40EB830008BF20F02A
:100960000100704711F0804F21D113F13872BCBFE4
:1009700001F00040704741F480114FEA5252C2F139
:100980001802C2F1200C10FA0CF320FA02F018BF82
:1009900040F001004FEAC1234FEAD32303FA0CFCD5
:1009A00040EA0C0023FA02F34FEA4303CCE77FEA64
:1009B000625307D150EA01331EBF4FF0FE4040F4AE
:1009C0004000704701F0004040F0FE4040F400005D
:1009D000704700BF4FEA4002B2F1FE4F0FD34FF015
:1009E0009E03B3EB12620DD94FEA002343F000439C
:1009F00010F0004F23FA02F018BF404270474FF04A
:100A00000000704712F1610F01D1420205D110F0D0
:100A1000004008BF6FF0004070474FF00000704783
:100A200042000ED2B2F1FE4F0BD34FF09E03B3EB58
:100A3000126209D44FEA002343F0004323FA02F084
:100A400070474FF00000704712F1610F01D1420270
:100A500002D14FF0FF3070474FF00000704700BFE9
:100A600080B500AF084A084B1B6843F010031360C1
:100A7000032000F059FC002000F008F803F044F8CF
:100A80000023184680BD00BF0020024080B582B020
:100A900000AF7860124B1A68124B1B7819464FF45E
:100AA0007A73B3FBF1F3B2FBF3F3184600F071FC79
:100AB0000346002B01D001230EE07B680F2B0AD8E0
:100AC000002279684FF0FF3000F039FC064A7B685D
:100AD0001360002300E0012318460837BD4680BD9F
:100AE00014000020040000200000002080B400AFAB
:100AF000054B1B781A46054B1B681344034A1360C9
:100B000000BFBD4680BC704704000020B00000203C
:100B100080B400AF024B1B681846BD4680BC7047CE
:100B2000B000002080B584B000AF7860FFF7F0FF20
:100B3000B8607B68FB60FB68B3F1FF3F05D0094BF1
:100B40001B781A46FB681344FB6000BFFFF7E0FF09
:100B50000246BB68D21AFB689A42F7D300BF10372F
:100B6000BD4680BD0400002080B586B000AF78602F
:100B70000023FB7500233B610023BB600023FB6067
:100B80007B68002B01D10123BEE07B689B68002BB2
:100B90007B689B6A002B09D17B680022DA627B6844
:100BA000002283F82420786802F0E0FF786800F0E3
:100BB000B7FA0346FB757B689B6A03F01003002BB2
:100BC00040F09980FB7D002B40F095807B689B6A0C
:100BD00023F4885323F0020343F002027B689A62F5
:100BE0007B685A687B68DB691A437B681B7B5B0008
:100BF0001343BA681343BB607B689B68B3F5807F7F
:100C000003D07B689B68012B02D14FF4807300E016
:100C100000233A6913433B617B681B7D012B19D18B
:100C20007B681B7B002B09D17B689B69013B5A03C6
:100C30003B69134343F400633B610BE07B689B6AB1
:100C400043F020027B689A627B68DB6A43F0010212
:100C50007B68DA627B681B687A681268526822F4E3
:100C600069413A690A435A607B681A687B681B6865
:100C70009968274B0B40B9680B4393607B689B686E
:100C8000B3F5807F03D07B689B68012B04D17B6820
:100C90001B69013B1B05FB607B681B687A68126857
:100CA000D26A22F47001FA680A43DA627B681B6830
:100CB0009A68184B1340BA6893420BD17B680022A4
:100CC000DA627B689B6A23F0030343F001027B68CE
:100CD0009A6218E07B689B6A23F0120343F01002CB
:100CE0007B689A627B68DB6A43F001027B68DA62A8
:100CF0000123FB7507E07B689B6A43F010027B6869
:100D00009A620123FB75FB7D18461837BD4680BDEE
:100D1000FDF7E1FFFE0E1FFF80B584B000AF7860E5
:100D20000023FB737B6893F82430012B01D102234D
:100D300098E07B68012283F82420786800F09EF90F
:100D40000346FB73FB7B002B40F087807B689B6A2C
:100D500023F4407323F0010343F480727B689A62AA
:100D60007B681B68414A934205D1414B5B6803F4A1
:100D70007023002B15D17B689B6A23F480127B685B
:100D80009A627B681B685B6803F48063002B26D043
:100D90007B689B6A23F4405343F480527B689A62D9
:100DA0001DE07B689B6A43F480127B689A627B68D3
:100DB0001B682F4A934204D07B681B682B4A9342DE
:100DC0000DD12B4B5B6803F48063002B07D07B684D
:100DD0009B6A23F4405343F480527B689A627B6899
:100DE0009B6A03F48053002B06D07B68DB6A23F0F8
:100DF00006027B68DA6202E07B680022DA627B68C6
:100E0000002283F824207B681B686FF002021A60BE
:100E10007B681B689B6803F46023B3F5602F13D1D4
:100E20007B681B68114A934205D1114B5B6803F440
:100E30007023002B08D17B681B687A68126892685F
:100E400042F4A0029A600CE07B681B687A68126822
:100E5000926842F480129A6003E07B68002283F873
:100E60002420FB7B18461037BD4680BD002801407A
:100E70000024014080B483B000AF78607B681B68B9
:100E8000DB6C18460C37BD4680BC704790B484B00C
:100E900000AF786039600023FB730023BB607B6880
:100EA00093F82430012B01D10223DCE07B6801227E
:100EB00083F824203B685B68062B1CD87B68196884
:100EC0007B681B68586B3B685A6813469B00134449
:100ED000053B1F2202FA03F3DB4318403B681C6802
:100EE0003B685A6813469B001344053B04FA03F31E
:100EF00003434B633CE03B685B680C2B1CD87B686E
:100F000019687B681B68186B3B685A6813469B001E
:100F10001344233B1F2202FA03F3DB4318403B68D0
:100F20001C683B685A6813469B001344233B04FA31
:100F300003F303430B631BE07B6819687B681B6842
:100F4000D86A3B685A6813469B001344413B1F22F2
:100F500002FA03F3DB4318403B681C683B685A689D
:100F600013469B001344413B04FA03F30343CB6253
:100F70003B681B68092B1CD97B6819687B681B6858
:100F8000D8683B681A6813465B0013441E3B07226F
:100F900002FA03F3DB4318403B689C683B681A681D
:100FA00013465B0013441E3B04FA03F30343CB6078
:100FB00019E07B6819687B681B6818693B681A68C8
:100FC00013465B001344072202FA03F3DB43184085
:100FD0003B689C683B681A6813465B00134404FA3C
:100FE00003F303430B613B681B68102B03D03B6882
:100FF0001B68112B32D17B681B681D4A934225D197
:101000007B681B689B6803F40003002B26D17B6878
:101010001B687A681268926842F400029A603B6822
:101020001B68102B1AD1134B1B68134AA2FB032316
:101030009A0C13469B0013445B00BB6002E0BB6844
:10104000013BBB60BB68002BF9D107E07B689B6A62
:1010500043F020027B689A620123FB737B680022C5
:1010600083F82420FB7B18461037BD4690BC7047A0
:10107000002401401400002083DE1B4380B584B0AF
:1010800000AF78600023FB600023BB607B681B68B7
:101090009B6803F00103012B39D07B681B687A68D9
:1010A0001268926842F001029A601B4B1B681B4A4F
:1010B000A2FB03239B0CBB6002E0BB68013BBB604F
:1010C000BB68002BF9D1FFF723FDF86018E0FFF7AC
:1010D0001FFD0246FB68D31A022B11D97B689B6A5D
:1010E00043F010027B689A627B68DB6A43F001027E
:1010F0007B68DA627B68002283F82420012307E002
:101100007B681B689B6803F00103012BDFD1002380
:1011100018461037BD4680BD1400002083DE1B43F7
:1011200080B584B000AF78600023FB607B681B68EB
:101130009B6803F00103012B27D17B681B687A6849
:101140001268926822F001029A60FFF7E1FCF860F1
:1011500014E0FFF7DDFC0246FB68D31A022B0DD921
:101160007B689B6A43F010027B689A627B68DB6A4B
:1011700043F001027B68DA62012307E07B681B68A9
:101180009B6803F00103012BE3D0002318461037BE
:10119000BD4680BD80B485B000AF78607B6803F049
:1011A0000703FB600C4BDB68BB60BA684FF6FF03BC
:1011B0001340BB60FB681A02BB68134343F0BF6374
:1011C00043F40033BB60044ABB68D36000BF1437EC
:1011D000BD4680BC704700BF00ED00E080B400AFAA
:1011E000044BDB681B0A03F007031846BD4680BCAE
:1011F000704700BF00ED00E080B483B000AF03464D
:10120000FB7197F90730002B0BDB084997F9073082
:101210005B09FA7902F01F02012000FA02F241F89C
:10122000232000BF0C37BD4680BC704700E100E0C2
:1012300080B483B000AF03463960FB7197F9073083
:10124000002B0ADB0D4997F907303A68D2B2120138
:10125000D2B20B4483F800230AE00949FB7903F07A
:101260000F03043B3A68D2B21201D2B20B441A7691
:1012700000BF0C37BD4680BC704700BF00E100E0F6
:1012800000ED00E080B489B000AFF860B9607A602A
:10129000FB6803F00703FB61FB69C3F10703042B41
:1012A00028BF0423BB61FB690433062B02D9FB6909
:1012B000033B00E000237B610122BB6902FA03F3D8
:1012C0005A1EBB681A407B699A4001217B6901FA6A
:1012D00003F3591E7B680B40134318462437BD4661
:1012E00080BC704780B582B000AF78607B68013BFE
:1012F000B3F1807F01D301230FE00A4A7B68013BF1
:1013000053600F214FF0FF30FFF792FF054B002293
:101310009A60044B07221A60002318460837BD461E
:1013200080BD00BF10E000E080B582B000AF786003
:101330007868FFF72FFF00BF0837BD4680BD80B536
:1013400086B000AF0346B9607A60FB7300237B610F
:10135000FFF744FF78617A68B9687869FFF792FF10
:10136000024697F90F3011461846FFF761FF00BF9C
:101370001837BD4680BD80B582B000AF0346FB7113
:1013800097F907301846FFF737FF00BF0837BD460B
:1013900080BD80B582B000AF78607868FFF7A2FFAB
:1013A000034618460837BD4680BD000080B48BB0A8
:1013B00000AF7860396000237B6200233B6227E145
:1013C00001227B6A02FA03F3FB613B681A68FB693E
:1013D0001340BB61BA69FB699A4240F016813B68D1
:1013E0005B68122B34D0122B0DD8022B2BD0022B82
:1013F00004D8002B31D0012B1CD048E0032B43D064
:10140000112B1BD043E0894A934226D0874A93424E
:1014100006D8874A934220D0864A93421DD036E0B0
:10142000854A934219D0854A934216D0844A934202
:1014300013D02CE03B68DB683B6228E03B68DB684C
:1014400004333B6223E03B68DB6808333B621EE009
:101450003B68DB680C333B6219E03B689B68002B00
:1014600002D104233B6212E03B689B68012B05D14B
:1014700008233B627B68FA691A6108E008233B6233
:101480007B68FA695A6102E000233B6200BFBB69D6
:10149000FF2B01D87B6801E07B6804337B61BB696B
:1014A000FF2B02D87B6A9B0002E07B6A083B9B0013
:1014B0003B617B691A680F213B6901FA03F3DB4347
:1014C0001A40396A3B6901FA03F31A437B691A60CF
:1014D0003B685B6803F08053002B00F09680594A0C
:1014E000584B9B6943F001039361564B9B6903F092
:1014F0000103BB60BB68544A7B6A9B08023352F805
:101500002330FB607B6A03F003039B000F2202FA87
:1015100003F3DB43FA681340FB607B684B4A93425A
:1015200013D07B684A4A93420DD07B68494A934264
:1015300007D07B68484A934201D1032306E0042385
:1015400004E0022302E0012300E000237A6A02F0B3
:10155000030292009340FA681343FB603A497B6AA6
:101560009B080233FA6841F823203B685B6803F468
:101570008033002B06D03949384B1A68BB691343B6
:101580000B6006E03549354B1A68BB69DB431340F5
:101590000B603B685B6803F40033002B06D02F49D7
:1015A0002E4B5A68BB6913434B6006E02B492B4B0B
:1015B0005A68BB69DB4313404B603B685B6803F4CC
:1015C0008013002B06D02549244B9A68BB6913432E
:1015D0008B6006E02149214B9A68BB69DB431340CD
:1015E0008B603B685B6803F40013002B06D01B493B
:1015F0001A4BDA68BB691343CB6006E01749174BF7
:10160000DA68BB69DB431340CB607B6A01337B62E2
:101610003B681A687B6A22FA03F3002B7FF4D0AE92
:1016200000BF2C37BD4680BC704700BF00002110B2
:1016300000001110000012100000311000003210E4
:10164000000022100010024000000140000801408C
:10165000000C014000100140001401400004014052
:1016600080B485B000AF78600B467B807B689A6859
:101670007B881340002B02D00123FB7301E0002381
:10168000FB73FB7B18461437BD4680BC704780B4A3
:1016900083B000AF78600B467B8013467B707B780D
:1016A000002B03D07A887B681A6103E07B881A04D8
:1016B0007B681A6100BF0C37BD4680BC70470000D4
:1016C00080B586B000AF78607B68002B01D1012324
:1016D0006CE27B681B6803F00103002B00F087803D
:1016E000924B5B6803F00C03042B0CD08F4B5B68B0
:1016F00003F00C03082B12D18C4B5B6803F480338E
:10170000B3F5803F0BD1894B1B6803F40033002BEA
:101710006CD07B685B68002B68D1012346E27B6854
:101720005B68B3F5803F06D1804A804B1B6843F469
:10173000803313602EE07B685B68002B0CD17B4A02
:101740007A4B1B6823F480331360784A774B1B680D
:1017500023F4802313601DE07B685B68B3F5A02F42
:101760000CD1724A714B1B6843F4802313606F4A9B
:101770006E4B1B6843F4803313600BE06B4A6B4B7A
:101780001B6823F480331360684A684B1B6823F49A
:10179000802313607B685B68002B13D0FFF7B8F9D8
:1017A000386108E0FFF7B4F902463B69D31A642BAD
:1017B00001D90323FAE15D4B1B6803F40033002BCE
:1017C000F0D014E0FFF7A4F9386108E0FFF7A0F9C2
:1017D00002463B69D31A642B01D90323E6E1534B3C
:1017E0001B6803F40033002BF0D100E000BF7B68DE
:1017F0001B6803F00203002B63D04C4B5B6803F0C3
:101800000C03002B0BD0494B5B6803F00C03082B37
:101810001CD1464B5B6803F48033002B16D1434B3D
:101820001B6803F00203002B05D07B681B69012BAA
:1018300001D00123BAE13D493C4B1B6823F0F8027B
:101840007B685B69DB0013430B603AE07B681B69D4
:10185000002B20D0364B01221A60FFF759F938616E
:1018600008E0FFF755F902463B69D31A022B01D96C
:1018700003239BE12D4B1B6803F00203002BF0D0E8
:101880002A492A4B1B6823F0F8027B685B69DB005E
:1018900013430B6015E0264B00221A60FFF738F95E
:1018A000386108E0FFF734F902463B69D31A022B8E
:1018B00001D903237AE11D4B1B6803F00203002BBF
:1018C000F0D17B681B6803F00803002B3AD07B68DB
:1018D0009B69002B19D0174B01221A60FFF718F9EA
:1018E000386108E0FFF714F902463B69D31A022B6E
:1018F00001D903235AE10D4B5B6A03F00203002B6D
:10190000F0D0012000F0DAFA1CE00A4B00221A6045
:10191000FFF7FEF838610FE0FFF7FAF802463B697F
:10192000D31A022B08D9032340E100BF0010024064
:1019300000004242800442429E4B5B6A03F0020375
:10194000002BE9D17B681B6803F00403002B00F037
:10195000A6800023FB75974BDB6903F08053002BB7
:101960000DD1944A934BDB6943F08053D361914B83
:10197000DB6903F08053BB60BB680123FB758E4BB2
:101980001B6803F48073002B18D18B4A8A4B1B68A9
:1019900043F480731360FFF7BBF8386108E0FFF78A
:1019A000B7F802463B69D31A642B01D90323FDE043
:1019B000814B1B6803F48073002BF0D07B68DB68DD
:1019C000012B06D17B4A7B4B1B6A43F00103136258
:1019D0002DE07B68DB68002B0CD1764A754B1B6AC7
:1019E00023F001031362734A724B1B6A23F0040352
:1019F00013621CE07B68DB68052B0CD16D4A6D4BD4
:101A00001B6A43F0040313626A4A6A4B1B6A43F081
:101A1000010313620BE0674A664B1B6A23F0010364
:101A20001362644A634B1B6A23F0040313627B68EE
:101A3000DB68002B15D0FFF76BF838610AE0FFF781
:101A400067F802463B69D31A41F28832934201D9C2
:101A50000323ABE0574B1B6A03F00203002BEED0CD
:101A600014E0FFF755F838610AE0FFF751F8024635
:101A70003B69D31A41F28832934201D9032395E09E
:101A80004C4B1B6A03F00203002BEED1FB7D012BB4
:101A900005D1484A474BDB6923F08053D3617B680B
:101AA000DB69002B00F08180424B5B6803F00C0384
:101AB000082B61D07B68DB69022B46D13F4B0022AB
:101AC0001A60FFF725F8386108E0FFF721F80246B1
:101AD0003B69D31A022B01D9032367E0354B1B68FE
:101AE00003F00073002BF0D17B681B6AB3F5803FD5
:101AF00008D130492F4B5B6823F400327B689B6828
:101B000013434B602B482B4B5B6823F474127B68A8
:101B1000196A7B685B6A0B4313434360274B0122BE
:101B20001A60FEF7F5FF386108E0FEF7F1FF0246A4
:101B30003B69D31A022B01D9032337E01D4B1B68E5
:101B400003F00073002BF0D02FE01C4B00221A6032
:101B5000FEF7DEFF386108E0FEF7DAFF02463B6978
:101B6000D31A022B01D9032320E0124B1B6803F088
:101B70000073002BF0D118E07B68DB69012B01D1E9
:101B8000012313E00B4B5B68FB60FB6803F48032BE
:101B90007B681B6A9A4206D1FB6803F470127B686B
:101BA0005B6A9A4201D0012300E0002318461837EF
:101BB000BD4680BD001002400070004060004242FF
:101BC00080B584B000AF786039607B68002B01D1AC
:101BD0000123D0E06A4B1B6803F007023B689A427E
:101BE00010D26749664B1B6823F007023B6813431A
:101BF0000B60634B1B6803F007023B689A4201D0FD
:101C00000123B8E07B681B6803F00203002B20D09F
:101C10007B681B6803F00403002B05D0594A594B1D
:101C20005B6843F4E06353607B681B6803F0080360
:101C3000002B05D0534A534B5B6843F46053536009
:101C40005049504B5B6823F0F0027B689B6813435C
:101C50004B607B681B6803F00103002B40D07B685E
:101C60005B68012B07D1474B1B6803F40033002B43
:101C700015D101237FE07B685B68022B07D1414BC4
:101C80001B6803F00073002B09D1012373E03D4B67
:101C90001B6803F00203002B01D101236BE03949DB
:101CA000384B5B6823F003027B685B6813434B602F
:101CB000FEF72EFFF8600AE0FEF72AFF0246FB68F7
:101CC000D31A41F28832934201D9032353E02D4BBA
:101CD0005B6803F00C027B685B689B009A42EBD167
:101CE000274B1B6803F007023B689A4210D924492E
:101CF000234B1B6823F007023B6813430B60204B08
:101D00001B6803F007023B689A4201D0012332E0CE
:101D10007B681B6803F00403002B08D01949194B9A
:101D20005B6823F4E0627B68DB6813434B607B688D
:101D30001B6803F00803002B09D01249114B5B68A4
:101D400023F460527B681B69DB0013434B6000F097
:101D500021F801460B4B5B681B0903F00F030A4A8D
:101D6000D35C21FA03F3094A1360094B1B68184638
:101D7000FEF78CFE002318461037BD4680BD00BF1D
:101D80000020024000100240BC490008140000205E
:101D90000000002090B48AB000AF2A4B3C1D0FCB4E
:101DA00084E80F00284B1B883B800023FB61002345
:101DB000BB6100237B6200237B6100233B62234BDA
:101DC0005B68FB61FB6903F00C03042B02D0082B5A
:101DD00003D02DE01E4B3B622DE0FB699B0C03F012
:101DE0000F0307F12802134413F8243C7B61FB69BD
:101DF00003F48033002B13D0144B5B685B0C03F0AF
:101E0000010307F12802134413F8283CBB617B69E6
:101E10000F4A02FB03F2BB69B2FBF3F37B6204E0FF
:101E20007B690C4A02FB03F37B627B6A3B6202E044
:101E3000074B3B6200BF3B6A18462837BD4690BC43
:101E4000704700BF94490008A449000800100240F0
:101E500000127A0000093D0080B400AF024B1B68FD
:101E60001846BD4680BC70471400002080B500AF06
:101E7000FFF7F2FF0146054B5B681B0A03F00703FF
:101E8000034AD35C21FA03F3184680BD00100240D8
:101E9000CC49000880B500AFFFF7DEFF0146054BD7
:101EA0005B68DB0A03F00703034AD35C21FA03F300
:101EB000184680BD00100240CC49000880B485B0AF
:101EC00000AF78600A4B1B680A4AA2FB03235B0A37
:101ED0007A6802FB03F3FB6000BFFB685A1EFA60DE
:101EE000002BF9D100BF1437BD4680BC704700BF3E
:101EF00014000020D34D621080B586B000AF78602A
:101F000000233B610023FB607B681B6803F0010337
:101F1000002B7DD00023FB754F4BDB6903F0805312
:101F2000002B0DD14C4A4C4BDB6943F08053D361FD
:101F3000494BDB6903F08053BB60BB680123FB7531
:101F4000464B1B6803F48073002B18D1434A434B64
:101F50001B6843F480731360FEF7DAFD386108E014
:101F6000FEF7D6FD02463B69D31A642B01D9032341
:101F70006DE03A4B1B6803F48073002BF0D0364BB6
:101F80001B6A03F44073FB60FB68002B2ED07B6858
:101F90005B6803F44072FB689A4227D02E4B1B6AA1
:101FA00023F44073FB602E4B01221A602C4B00225D
:101FB0001A60294AFB681362FB6803F00103002BD7
:101FC00014D0FEF7A5FD38610AE0FEF7A1FD024638
:101FD0003B69D31A41F28832934201D9032336E098
:101FE0001D4B1B6A03F00203002BEED01A491A4B5B
:101FF0001B6A23F440727B685B6813430B62FB7DB2
:10200000012B05D1144A144BDB6923F08053D361B3
:102010007B681B6803F00203002B08D00E490E4BAF
:102020005B6823F440427B689B6813434B607B688A
:102030001B6803F01003002B08D00749064B5B68B0
:1020400023F480027B68DB6813434B60002318464F
:102050001837BD4680BD00BF001002400070004030
:102060004004424280B582B000AF78607B68002BAC
:1020700001D101231DE07B6893F83D30DBB2002BDA
:1020800006D17B68002283F83C20786801F0AAFD25
:102090007B68022283F83D207B681A687B680433E2
:1020A0001946104600F010FA7B68012283F83D20A3
:1020B000002318460837BD4680BD80B485B000AF08
:1020C00078607B68022283F83D207B681B689B68F0
:1020D00003F00703FB60FB68062B07D07B681B68D7
:1020E0007A681268126842F001021A607B68012265
:1020F00083F83D20002318461437BD4680BC704746
:1021000080B582B000AF78607B68002B01D10123DD
:102110001DE07B6893F83D30DBB2002B06D17B6875
:10212000002283F83C20786800F015F87B680222D2
:1021300083F83D207B681A687B6804331946104693
:1021400000F0C2F97B68012283F83D200023184685
:102150000837BD4680BD80B483B000AF786000BF53
:102160000C37BD4680BC704780B584B000AF786046
:1021700039607B681B6801223968184600F024FC2E
:102180007B681B68104A934207D17B681B687A689A
:102190001268526C42F400425A647B681B689B6868
:1021A00003F00703FB60FB68062B07D07B681B6806
:1021B0007A681268126842F001021A600023184619
:1021C0001037BD4680BD00BF002C014080B584B0F3
:1021D00000AFF860B9607A60FB6893F83C30012B7F
:1021E00001D10223B4E0FB68012283F83C20FB68A4
:1021F000022283F83D207B680C2B00F29F8001A215
:1022000052F823F0392200083D2300083D2300083E
:102210003D230008792200083D2300083D230008E3
:102220003D230008BB2200083D2300083D23000891
:102230003D230008FB220008FB681B68B9681846AC
:1022400000F0A4F9FB681B68FA681268926942F012
:1022500008029A61FB681B68FA681268926922F0AA
:1022600004029A61FB681B68FA6812689169BA688F
:1022700012690A439A6162E0FB681B68B9681846F4
:1022800000F0EAF9FB681B68FA681268926942F488
:1022900000629A61FB681B68FA681268926922F40E
:1022A00080629A61FB681B68FA6812689169BA6873
:1022B000126912020A439A6141E0FB681B68B9681F
:1022C000184600F033FAFB681B68FA681268D26996
:1022D00042F00802DA61FB681B68FA681268D2698A
:1022E00022F00402DA61FB681B68FA681268D1699F
:1022F000BA6812690A43DA6121E0FB681B68B968B1
:10230000184600F07DFAFB681B68FA681268D2690B
:1023100042F40062DA61FB681B68FA681268D269ED
:1023200022F48062DA61FB681B68FA681268D1697E
:10233000BA68126912020A43DA6100E000BFFB6862
:10234000012283F83D20FB68002283F83C20002313
:1023500018461037BD4680BD80B584B000AF7860A8
:1023600039607B6893F83C30012B01D10223A6E051
:102370007B68012283F83C207B68022283F83D20A1
:102380007B681B689B68FB60FB6823F07703FB603E
:10239000FB6823F47F43FB607B681B68FA689A60E4
:1023A0003B681B68402B67D0402B0BD8102B73D099
:1023B000102B02D8002B6FD078E0202B6CD0302B64
:1023C0006AD073E0702B0DD0702B04D8502B33D013
:1023D000602B41D06AE0B3F5805F66D0B3F5005F53
:1023E00017D063E07B6818683B6899683B685A6857
:1023F0003B68DB6800F0C9FA7B681B689B68FB6080
:10240000FB6843F07703FB607B681B68FA689A609F
:102410004CE07B6818683B6899683B685A683B6881
:10242000DB6800F0B2FA7B681B687A681268926811
:1024300042F480429A6039E07B6818683B685968CA
:102440003B68DB681A4600F029FA7B681B6850215C
:10245000184600F080FA29E07B6818683B685968E4
:102460003B68DB681A4600F047FA7B681B6860210E
:10247000184600F070FA19E07B6818683B685968E4
:102480003B68DB681A4600F009FA7B681B6840214C
:10249000184600F060FA09E07B681A683B681B6820
:1024A0001946104600F057FA00E000BF7B68012291
:1024B00083F83D207B68002283F83C2000231846E7
:1024C0001037BD4680BD000080B485B000AF786095
:1024D00039607B681B68FB607B68294A93420BD09C
:1024E0007B68B3F1804F07D07B68264A934203D0C4
:1024F0007B68254A934208D1FB6823F07003FB6098
:102500003B685B68FA681343FB607B681C4A934234
:102510000BD07B68B3F1804F07D07B68194A934298
:1025200003D07B68184A934208D1FB6823F44073B8
:10253000FB603B68DB68FA681343FB60FB6823F0D1
:1025400080023B685B691343FB607B68FA681A6032
:102550003B689A687B68DA623B681A687B689A62B3
:102560007B68074A934203D13B681A697B681A6308
:102570007B6801225A6100BF1437BD4680BC70479A
:10258000002C0140000400400008004080B487B0E7
:1025900000AF786039607B681B6A23F001027B68BA
:1025A0001A627B681B6A7B617B685B683B617B6846
:1025B0009B69FB60FB6823F07003FB60FB6823F002
:1025C0000303FB603B681B68FA681343FB607B698D
:1025D00023F002037B613B689B687A6913437B614C
:1025E0007B681C4A93420CD17B6923F008037B6112
:1025F0003B68DB687A6913437B617B6923F00403E2
:102600007B617B68134A934211D13B6923F4807349
:102610003B613B6923F400733B613B685B693A694A
:1026200013433B613B689B693A6913433B617B6899
:102630003A695A607B68FA689A613B685A687B68B5
:102640005A637B687A691A6200BF1C37BD4680BC3A
:10265000704700BF002C014080B487B000AF7860A5
:1026600039607B681B6A23F010027B681A627B6802
:102670001B6A7B617B685B683B617B689B69FB6075
:10268000FB6823F4E043FB60FB6823F44073FB60CA
:102690003B681B681B02FA681343FB607B6923F0ED
:1026A00020037B613B689B681B017A6913437B6154
:1026B0007B681D4A93420DD17B6923F080037B61C7
:1026C0003B68DB681B017A6913437B617B6923F0FC
:1026D00040037B617B68144A934213D13B6923F426
:1026E00080633B613B6923F400633B613B685B694A
:1026F0009B003A6913433B613B689B699B003A69C5
:1027000013433B617B683A695A607B68FA689A6157
:102710003B685A687B689A637B687A691A6200BF73
:102720001C37BD4680BC7047002C014080B487B088
:1027300000AF786039607B681B6A23F480727B6825
:102740001A627B681B6A7B617B685B683B617B68A4
:10275000DB69FB60FB6823F07003FB60FB6823F020
:102760000303FB603B681B68FA681343FB607B69EB
:1027700023F400737B613B689B681B027A691343F7
:102780007B617B681D4A93420DD17B6923F4006312
:102790007B613B68DB681B027A6913437B617B6961
:1027A00023F480637B617B68144A934213D13B69B5
:1027B00023F480533B613B6923F400533B613B6846
:1027C0005B691B013A6913433B613B689B691B01D1
:1027D0003A6913433B617B683A695A607B68FA68DF
:1027E000DA613B685A687B68DA637B687A691A62E7
:1027F00000BF1C37BD4680BC704700BF002C0140A5
:1028000080B487B000AF786039607B681B6A23F4BE
:1028100080527B681A627B681B6A3B617B685B68DD
:102820007B617B68DB69FB60FB6823F4E043FB6052
:10283000FB6823F44073FB603B681B681B02FA686B
:102840001343FB603B6923F400533B613B689B6887
:102850001B033A6913433B617B680F4A934209D1DA
:102860007B6923F480437B613B685B699B017A69E8
:1028700013437B617B687A695A607B68FA68DA6126
:102880003B685A687B681A647B683A691A6200BFC1
:102890001C37BD4680BC7047002C014080B487B017
:1028A00000AFF860B9607A60FB681B6A7B61FB6807
:1028B0001B6A23F00102FB681A62FB689B693B619B
:1028C0003B6923F0F0033B617B681B013A691343CA
:1028D0003B617B6923F00A037B617A69BB68134320
:1028E0007B61FB683A699A61FB687A691A6200BF8A
:1028F0001C37BD4680BC704780B487B000AFF8601D
:10290000B9607A60FB681B6A23F01002FB681A62E8
:10291000FB689B697B61FB681B6A3B617B6923F4F5
:1029200070437B617B681B037A6913437B613B695E
:1029300023F0A0033B61BB681B013A6913433B6171
:10294000FB687A699A61FB683A691A6200BF1C37B2
:10295000BD4680BC704780B485B000AF78603960F8
:102960007B689B68FB60FB6823F07003FB603A6840
:10297000FB68134343F00703FB607B68FA689A60C7
:1029800000BF1437BD4680BC704780B487B000AF2D
:10299000F860B9607A603B60FB689B687B617B692B
:1029A00023F47F437B613B681A027B681A43BB6850
:1029B00013437A6913437B61FB687A699A6000BFAD
:1029C0001C37BD4680BC704780B487B000AFF8604C
:1029D000B9607A60BB6803F01F03012202FA03F3B7
:1029E0007B61FB681A6A7B69DB431A40FB681A62E9
:1029F000FB681A6ABB6803F01F03796801FA03F3E6
:102A00001A43FB681A6200BF1C37BD4680BC704782
:102A100080B485B000AF786039607B6893F83C3053
:102A2000012B01D1022332E07B68012283F83C2094
:102A30007B68022283F83D207B681B685B68FB6033
:102A40007B681B689B68BB60FB6823F07003FB60BE
:102A50003B681B68FA681343FB60BB6823F0800384
:102A6000BB603B685B68BA681343BB607B681B68EC
:102A7000FA685A607B681B68BA689A607B680122B2
:102A800083F83D207B68002283F83C200023184611
:102A90001437BD4680BC704780B485B000AF786005
:102AA00039600023FB607B6893F83C30012B01D137
:102AB00002233DE07B68012283F83C20FB6823F081
:102AC000FF023B68DB681343FB60FB6823F4407242
:102AD0003B689B681343FB60FB6823F480623B68A0
:102AE0005B681343FB60FB6823F400623B681B6870
:102AF0001343FB60FB6823F480523B681B6913435C
:102B0000FB60FB6823F400523B685B691343FB6086
:102B1000FB6823F480423B68DB691343FB607B68FE
:102B20001B68FA685A647B68002283F83C20002303
:102B300018461437BD4680BC704780B582B000AFE0
:102B400078607B68002B01D101233FE07B6893F81C
:102B50003930DBB2002B06D17B68002283F83820A5
:102B6000786801F09DF87B68242283F839207B681F
:102B70001B687A681268D26822F40052DA607868BA
:102B800000F028F87B681B687A681268126922F4E2
:102B900090421A617B681B687A681268526922F059
:102BA0002A025A617B681B687A681268D26842F40C
:102BB0000052DA607B680022DA637B68202283F8A7
:102BC00039207B68202283F83A20002318460837F2
:102BD000BD4680BD90B585B000AF78607B681B684E
:102BE0007A681268126922F440517A68D2680A43FE
:102BF0001A617B689A687B681B691A437B685B690A
:102C00001343FB607B681A687B681B68DB6823F4EE
:102C1000B05323F00C03F9680B43D3607B681B6847
:102C20007A681268526922F440717A6892690A439C
:102C30005A617B681B68524A93424ED1FFF72AF9CA
:102C4000B8607B681968BA6813469B0013449A0001
:102C50001A447B685B689B00B2FBF3F3494AA2FB12
:102C600003235B091801BA6813469B0013449A00BA
:102C70001A447B685B689B00B2FBF3F2414BA3FBF9
:102C800002435B09642404FB03F3D31A1B013233B0
:102C90003C4AA2FB03235B0903F0F0031844BA6823
:102CA00013469B0013449A001A447B685B689B00A0
:102CB000B2FBF3F2334BA3FB02435B09642404FB36
:102CC00003F3D31A1B0132332E4AA2FB03235B0901
:102CD00003F00F0303448B604DE0FFF7C7F8B860C3
:102CE0007B681968BA6813469B0013449A001A441B
:102CF0007B685B689B00B2FBF3F3224AA2FB0323D1
:102D00005B091801BA6813469B0013449A001A44E1
:102D10007B685B689B00B2FBF3F21A4BA3FB024398
:102D20005B09642404FB03F3D31A1B013233154AF5
:102D3000A2FB03235B0903F0F0031844BA681346AF
:102D40009B0013449A001A447B685B689B00B2FBAB
:102D5000F3F20C4BA3FB02435B09642404FB03F373
:102D6000D31A1B013233074AA2FB03235B0903F08A
:102D70000F0303448B6000BF1437BD4690BD00BFF6
:102D8000003801401F85EB5180B584B000AF0023AF
:102D9000FB600023BB60FDF763FE00F0B9F800F0B4
:102DA00027FA00F005F900F041F900F0F7F94D4B72
:102DB0001B684C4A1268D26842F02002DA604FF079
:102DC0007E5000F005FD0A2000F010FD464B1B6808
:102DD000184600F0FDFC4548FFF76FF90021434815
:102DE000FFF7C2F904214148FFF7BEF908213F4827
:102DF000FFF7BAF93E48FDF78FFF0021042000F0ED
:102E00005BFD5021082000F057FD012202213948C6
:102E1000FEF73DFC01224FF400513748FEF737FC26
:102E200001224FF480513348FEF731FC334B00222E
:102E30001A70334B1B78DBB2002B04D000F03AFA47
:102E40002F4B00221A702D4B1B78DBB2012B46D181
:102E50002748FEF70FF8F860FB68B3F5966F3AD392
:102E600000F07EFD2321042000F026FD4FF4FA70CF
:102E7000FDF758FE0021042000F01EFD0A2000F09E
:102E800077FC03461846FDF7A5FD02461D4B5A6028
:102E900001224FF400611748FEF7F9FB4FF47A70F6
:102EA000FDF740FE00224FF400611248FEF7EFFBF1
:102EB00000BF154B9B78DBB2232BFAD100F05AFAF6
:102EC00000F012FB00F09CFB7860786800F080FD59
:102ED00000F062FDADE70D4801F040F9A9E7074BAE
:102EE0001B78A6E7B8010020080000205801002048
:102EF0002801002000080140001001409800002037
:102F00009900002014010020B4000020A849000806
:102F100080B594B000AF07F128032822002118469D
:102F200001F0B7F807F1140300221A605A609A60A2
:102F3000DA601A613B1D00221A605A609A60DA60FA
:102F40000223BB620123BB631023FB6300237B646A
:102F500007F128031846FEF7B3FB0346002B01D008
:102F600000F0CCFD0F237B610023BB610023FB61DC
:102F700000233B6200237B6207F114030021184603
:102F8000FEF71EFE0346002B01D000F0B7FD022322
:102F90007B600023FB603B1D1846FEF7ADFF034638
:102FA000002B01D000F0AAFD00BF5037BD4680BD08
:102FB00080B584B000AF3B1D00221A605A609A6051
:102FC000184B194A1A60174B00229A60154B0122C0
:102FD0001A73144B00221A75124B4FF46022DA61F7
:102FE000104B00225A600F4B01221A610D48FDF769
:102FF000BBFD0346002B01D000F080FD00237B6069
:103000000123BB600023FB603B1D19460548FDF70B
:103010003DFF0346002B01D000F070FD00BF1037CC
:10302000BD4680BD280100200024014080B596B037
:1030300000AF07F1480300221A605A609A60DA6014
:1030400007F1400300221A605A6007F124030022AE
:103050001A605A609A60DA601A615A619A613B1D7F
:1030600020220021184601F014F84A4B4A4A1A60FF
:10307000484B14225A60474B00229A60454B41F658
:10308000E852DA60434B00221A61424B00225A6137
:10309000404B00229A613F48FEF7E4FF0346002BB5
:1030A00001D000F02BFD4FF48053BB6407F14803BF
:1030B00019463848FFF750F90346002B01D000F0BD
:1030C0001DFD3448FFF71CF80346002B01D000F02B
:1030D00015FD00233B6400237B6407F14003194680
:1030E0002C48FFF795FC0346002B01D000F006FDAD
:1030F00060237B620023BB620023FB6200233B63EF
:1031000000237B630023BB630023FB6307F12403DD
:10311000002219461F48FFF759F80346002B01D03B
:1031200000F0ECFC07F12403042219461948FFF7CC
:103130004DF80346002B01D000F0E0FC07F124031A
:10314000082219461348FFF741F80346002B01D027
:1031500000F0D4FC00237B600023BB600023FB60F5
:1031600000233B6100237B614FF40053BB610023CC
:103170003B623B1D19460748FFF78EFC0346002BB8
:1031800001D000F0BBFC034800F04AFD00BF5837F7
:10319000BD4680BD58010020002C014080B500AF25
:1031A000114B124A1A60104B4FF4E1325A600E4B29
:1031B00000229A600C4B0022DA600B4B00221A614D
:1031C000094B0C225A61084B00229A61064B0022DF
:1031D000DA610548FFF7B1FC0346002B01D000F08F
:1031E0008DFC00BF80BD00BFB8010020004400403E
:1031F00080B586B000AF07F1080300221A605A605C
:103200009A60DA60284A284B9B6943F01003936167
:10321000254B9B6903F010037B607B68224A224B9D
:103220009B6943F0040393611F4B9B6903F0040304
:103230003B603B6800224FF400511C48FEF727FA20
:10324000002241F6D2011A48FEF721FA4FF400534A
:10325000BB600123FB6000233B6102237B6107F11C
:10326000080319461148FEF7A1F841F6D203BB60E6
:103270000123FB6000233B6102237B6107F108030C
:1032800019460B48FEF792F82023BB600023FB6031
:1032900000233B6107F1080319460548FEF786F84D
:1032A00000BF1837BD4680BD00100240001001402D
:1032B0000008014080B582B000AF00237B604DE084
:1032C0007A6813469B0013445B000133274AD35CA2
:1032D000D8B227497A6813469B0013449B000B44DD
:1032E00002461A707A6813469B0013445B0002334F
:1032F0001E4AD35CD8B21E497A6813469B00134419
:103300009B000B44013302461A707A6813469B00F7
:1033100013445B0003331549184600F043F8144981
:103320007A6813469B0013449B000B4408331860D3
:103330007A6813469B0013445B0006330B4918461A
:1033400000F078F80A497A6813469B0013449B0002
:103350000B440C3318607B6801337B607B68022B65
:10336000AEDD00BF0837BD4680BD00BF980100201C
:10337000B800002080B400AF084B1B78DAB2084BCD
:103380005A70064B5B78DAB2054B1A70034B002279
:103390009A7000BFBD4680BC704700BFB4000020DB
:1033A0001401002080B485B000AF7860396000233C
:1033B000FB600023BB6034E0BB68002B0FD17B684F
:1033C0003A6813441B78302B09D07B683A68134461
:1033D0001B78303B642202FB03F3FB601EE0BB68FA
:1033E000012B0FD17B6801333A6813441B78A3F19A
:1033F000300213469B0013445B001A46FB681344DB
:10340000FB600BE0BB68022B08D17B6802333A6893
:1034100013441B78303BFA681344FB60BB680133EC
:10342000BB60BB68022BC7DDFB6818461437BD467E
:1034300080BC704780B485B000AF786039600023ED
:10344000FB600023BB6045E0BB68002B10D17B68AC
:103450003A6813441B78302B0AD07B683A681344CF
:103460001B78303B4FF47A7202FB03F3FB602EE0D3
:10347000BB68012B0CD17B6801333A6813441B787D
:10348000303B642202FB03F3FA681344FB601EE046
:10349000BB68022B0FD17B6802333A6813441B7858
:1034A000A3F1300213469B0013445B001A46FB68ED
:1034B0001344FB600BE0BB68032B08D17B6803332C
:1034C0003A6813441B78303BFA681344FB60BB68CE
:1034D0000133BB60BB68032BB6DDFB6818461437AD
:1034E000BD4680BC7047000080B483B000AF0023AD
:1034F0007B60414B00221A613F4B00225A623E4BD7
:1035000000229A6300237B606EE03B497A68134691
:103510009B0013449B000B4401331A78374B5B78B4
:103520009A4212D134497A6813469B0013449B0097
:103530000B4410331B68591C2F487A6813469B00B4
:1035400013449B000344103319602B497A681346D7
:103550009B0013449B000B441A78284B1B789A421B
:1035600012D125497A6813469B0013449B000B44F3
:1035700010331B68591C20487A6813469B0013447B
:103580009B000344103319601B497A6813469B0063
:1035900013449B000B440C331A68184B5B689A4227
:1035A0000CDA164B596814487A6813469B0013448A
:1035B0009B00034408331B68994212DB0E497A686A
:1035C00013469B0013449B000B4410331B68591C8B
:1035D00009487A6813469B0013449B000344103348
:1035E00019607B6801337B607B68022B8DDD00BF37
:1035F0000C37BD4680BC7047B80000201401002085
:1036000080B485B000AF0023FB600023BB600023C3
:103610007B601BE014497A6813469B0013449B00AF
:103620000B4410331A68FB689A420CDD0E497A6825
:1036300013469B0013449B000B4410331B68FB6034
:103640007B680133BB607B6801337B607B68022B46
:10365000E0DDBB68002B01D10423BB60BB681846CA
:103660001437BD4680BC7047B800002080B584B0D8
:1036700000AF0023FB6000BF20212148FDF7F0FFD1
:103680000346012BF8D00023FB7219E00122102120
:103690001B48FDF7FCFFFB685B00FB60202118481E
:1036A000FDF7DEFF0346002B02D0FB680133FB6011
:1036B000002210211248FDF7EAFFFB7A0133FB726A
:1036C000FB7A172BE2D900237B600CE0012210214A
:1036D0000B48FDF7DCFF002210210948FDF7D7FF5A
:1036E0007B6801337B607B68002BEFDDFB6883F434
:1036F0000003FB60FB6818461037BD4680BD00BF65
:103700000008014080B584B000AF78600023FB6002
:103710000023BB6008E0FFF7A9FF0246FB681344E3
:10372000FB60BB680133BB60BA687B689A42F2DB1E
:10373000FA687B6892FBF3F318461037BD4680BDEC
:1037400090B583B000AF78607868FFF7DBFF024682
:10375000064B1B68D31A1846FCF74CFE03460C4672
:10376000184621460C37BD4690BD00BF9C00002086
:10377000B0B582B000AF78607868FFF7E1FF04462B
:103780000D460B4B1B681846FCF746FE02460B46DF
:1037900020462946FCF7BEFF03460C461846214644
:1037A000FDF7C8F8034618460837BD46B0BD00BF50
:1037B0000C00002080B483B000AF7860034A7B68BF
:1037C000136000BF0C37BD4680BC70479C000020D2
:1037D00080B483B000AF7860034A7B68136000BF99
:1037E0000C37BD4680BC70470C00002090B585B0FA
:1037F00000AF78607868FFF785FF03461846FCF74E
:10380000F9FD03460C46C7E90234D7E90201FDF78A
:1038100069F803461846FFF7CDFF00BF1437BD46D1
:1038200090BD000080B584B000AF786039600022A0
:103830004FF480511E48FDF72AFF4FF4FA70FDF750
:1038400071F93B68012B05D1012240211848FDF791
:103850001EFF04E0002240211548FDF718FF002359
:10386000FB6012E0012280211148FDF710FF0420C7
:10387000FDF758F9002280210D48FDF708FF0420CC
:10388000FDF750F9FB680133FB60FA687B689A42E8
:10389000E8DB4FF4FA70FDF745F901224FF480514F
:1038A0000348FDF7F4FE00BF1037BD4680BD00BFE2
:1038B000000801400000000090B585B000AF03464D
:1038C0003960FB713868FCF795FD4FF00002224B20
:1038D000FCF744FC03460C46184621461CA3D3E9DA
:1038E0000023FCF7EDFD03460C4618462146FDF784
:1038F00021F80346FB60FB79002B07D1174B1C68AE
:10390000F868FDF78DF8034663631CE0FB79042B30
:1039100007D1124B1C68F868FDF782F80346A363D1
:1039200011E0FB79082B07D10C4B1C68F868FDF7F8
:1039300077F80346E36306E0084B1C68F868FDF778
:103940006FF80346236400BF1437BD4690BD00BF27
:10395000039D36D069031140008046405801002085
:1039600080B500AF70210820FFF7A6FF4FF47A70F2
:10397000FDF7D8F826210820FFF79EFF4FF47A7054
:10398000FDF7D0F850210820FFF796FF4FF47A702A
:10399000FDF7C8F800BF80BD80B500AF232104202B
:1039A000FFF78AFF4FF47A70FDF7BCF8502104202E
:1039B000FFF782FF4FF47A70FDF7B4F8002104207E
:1039C000FFF77AFF4FF47A70FDF7ACF800BF80BDC7
:1039D00080B582B000AF78607B68013B032B00F2BA
:1039E000878001A252F823F0F9390008373A00081D
:1039F000753A0008B33A00083F4B1B68022B04D10C
:103A000000216420FFF70EFF11E03B4B1B68032BE6
:103A100004D10021C820FFF705FF08E0364B1B68E2
:103A2000042B04D100214FF49670FFF7FBFE324BBC
:103A300001221A605CE0304B1B68012B05D100218C
:103A40004FF49670FFF7EEFE10E02B4B1B68032B34
:103A500004D100216420FFF7E5FE07E0264B1B6838
:103A6000042B03D10021C820FFF7DCFE224B0222E9
:103A70001A603DE0204B1B68012B04D10021C820B7
:103A8000FFF7D0FE11E01C4B1B68022B05D1002173
:103A90004FF49670FFF7C6FE07E0174B1B68042B28
:103AA00003D100216420FFF7BDFE134B03221A60EF
:103AB0001EE0114B1B68012B04D100216420FFF78D
:103AC000B1FE11E00C4B1B68022B04D10021C82071
:103AD000FFF7A8FE08E0084B1B68032B04D1002168
:103AE0004FF49670FFF79EFE034B04221A6000BF4E
:103AF00000BF0837BD4680BD1000002080B400AF75
:103B000000BFBD4680BC704780B485B000AF154A89
:103B1000144B9B6943F001039361124B9B6903F0C3
:103B20000103BB60BB680F4A0E4BDB6943F0805357
:103B3000D3610C4BDB6903F080537B607B680A4BDD
:103B40005B68FB60FB6823F0E063FB60FB6843F0AD
:103B50000073FB60044AFB68536000BF1437BD4626
:103B600080BC7047001002400000014080B588B062
:103B700000AF786007F1100300221A605A609A6063
:103B8000DA607B681B68144A934221D1134A134BB5
:103B90009B6943F400739361104B9B6903F40073BA
:103BA000FB60FB680D4A0D4B9B6943F00403936176
:103BB0000A4B9B6903F00403BB60BB6801233B61B4
:103BC00003237B6107F1100319460548FDF7EEFB5F
:103BD00000BF2037BD4680BD0024014000100240D8
:103BE0000008014080B485B000AF78607B681B6836
:103BF000094A93420BD1094A084B9B6943F400637D
:103C00009361064B9B6903F40063FB60FB6800BF94
:103C10001437BD4680BC7047002C014000100240A4
:103C200080B588B000AF786007F1100300221A60F9
:103C30005A609A60DA607B681B68164A934225D105
:103C4000154A154B9B6943F004039361124B9B6922
:103C500003F00403FB60FB684FF4A0633B610223A5
:103C60007B610223FB6107F1100319460B48FDF746
:103C70009DFB4FF400733B6102237B610323FB61D7
:103C800007F1100319460548FDF790FB00BF2037E8
:103C9000BD4680BD002C01400010024000080140DC
:103CA00080B588B000AF786007F1100300221A6079
:103CB0005A609A60DA607B681B681F4A934237D16A
:103CC0001E4A1E4BDB6943F40033D3611B4BDB6997
:103CD00003F40033FB60FB68184A184B9B6943F000
:103CE00004039361154B9B6903F00403BB60BB683D
:103CF00004233B6102237B610323FB6107F1100373
:103D000019460F48FDF752FB08233B6100237B61F6
:103D10000023BB6107F1100319460948FDF746FB74
:103D2000002200212620FDF70AFB2620FDF723FBB9
:103D300000BF2037BD4680BD004400400010024057
:103D40000008014080B400AF00BFBD4680BC704792
:103D500080B400AFFEE780B400AFFEE780B400AFF0
:103D6000FEE780B400AFFEE780B400AF00BFBD4601
:103D700080BC704780B400AF00BFBD4680BC7047B8
:103D800080B400AF00BFBD4680BC704780B500AFB7
:103D9000FCF7ACFE00BF80BD80B500AF224B1B68B6
:103DA000224A5268D1B2224AD1541F4B1B68204A82
:103DB000D35CDBB2232B2FD11B4B1B68022B06D10C
:103DC0001C4B1B4A1188927819809A7020E020229F
:103DD0001749194800F052F9174B9B7FDBB2303B73
:103DE000DAB2164B1A70154B1B78DBB2002B06D0DB
:103DF00000224FF400511248FDF749FC05E0012272
:103E00004FF400510E48FDF742FC0E4B01221A7090
:103E1000054B00221A6004E0034B1B680133024A81
:103E2000136000BF80BD00BFA00000200044004020
:103E3000F4000020B4000020980100209800002029
:103E4000001001409900002090B587B000AFF860E5
:103E5000B9607A6000237B610AE0BC68631CBB60C8
:103E6000AFF300800346DBB223707B6901337B61D3
:103E70007A697B689A42F0DB7B6818461C37BD463E
:103E800090BD80B586B000AFF860B9607A6000235D
:103E90007B6109E0BB685A1CBA601B781846AFF317
:103EA00000807B6901337B617A697B689A42F1DB30
:103EB0007B6818461837BD4680BD000080B584B0C9
:103EC00000AF7860114B1B68002B02D10F4B104ADA
:103ED0001A600E4B1B68FB600C4B1A687B6813441E
:103EE0006A46934207D900F09FF802460C231360FC
:103EF0004FF0FF3306E0054B1A687B681344034A12
:103F00001360FB6818461037BD4680BDA400002032
:103F1000FC01002080B483B000AF78604FF0FF3325
:103F200018460C37BD4680BC704780B483B000AFE4
:103F3000786039603B684FF400525A60002318469D
:103F40000C37BD4680BC704780B483B000AF78604A
:103F5000012318460C37BD4680BC704780B485B03D
:103F600000AFF860B9607A60002318461437BD4688
:103F700080BC704780B400AF154A154B1B6843F0F6
:103F8000010313601249124B5A68124B13404B60E5
:103F90000F4A0F4B1B6823F0847323F480331360A4
:103FA0000B4A0B4B1B6823F480231360084A084B11
:103FB0005B6823F4FE035360054B4FF41F029A60C5
:103FC000054B4FF000629A6000BFBD4680BC704751
:103FD000001002400000FFF800ED00E0002103E0C7
:103FE0000B4B5B58435004310A480B4B42189A4222
:103FF000F6D30A4A02E0002342F8043B084B9A42F7
:10400000F9D3FFF7B7FF00F015F8FEF7BDFE7047D4
:10401000404A0008000000207C0000207C000020B6
:10402000FC010020FEE70000014B1868704700BF4C
:104030001800002070B500250C4E0D4CA41BA410D8
:10404000A54209D100F09AFC00250A4E0A4CA41B97
:10405000A410A54205D170BD56F82530984701350A
:10406000EEE756F8253098470135F2E7384A000860
:10407000384A0008384A00083C4A000810B5431E78
:104080000A44914200D110BD11F8014B03F8014FD1
:10409000F7E703460244934200D1704703F8011B3F
:1040A000F9E7000070B50E46054618B183690BB9F3
:1040B00000F00EFAAB69AC6813B9284600F008FAB4
:1040C000234B9C4217D16C68A3891B071DD523691C
:1040D000DBB1013EA36816F8011F013BA360E9B9FB
:1040E000002B2EDA22460A21284600F03FF8013044
:1040F00011D00A2070BD174B9C4201D1AC68E3E798
:10410000154B9C4208BFEC68DEE72146284600F0CC
:104110007FF80028DDD04FF0FF3070BD002B04DAAF
:10412000A269934206DB0A2904D023685A1C226044
:104130001970CFE72246284600F018F80130C9D19F
:10414000E9E70A2023685A1C2260187070BD00BF7E
:10415000F8490008184A0008D8490008024B0146EF
:104160001868FFF79FBF00BF18000020F8B50E4683
:104170001446054618B183690BB900F0A9F9214B23
:104180009C422AD16C68A369A360A3891A072ED523
:10419000236963B323692068F6B2C01A636937469E
:1041A000984204DB2146284600F028F928BBA36882
:1041B0000130013BA36023685A1C22601E706369B2
:1041C000984204D0A389DB0719D50A2E17D12146BE
:1041D000284600F013F990B10FE00B4B9C4201D13F
:1041E000AC68D0E7094B9C4208BFEC68CBE721469E
:1041F000284600F00DF80028CCD04FF0FF373846A5
:10420000F8BD00BFF8490008184A0008D84900085E
:10421000324B70B51D6806460C4625B1AB6913B923
:10422000284600F055F92E4B9C420FD16C68B4F92A
:104230000C309AB215072CD4D00611D40922326062
:1042400043F04003A3814FF0FF3070BD254B9C42EB
:1042500001D1AC68EBE7244B9C4208BFEC68E6E771
:10426000510712D5616B41B104F14403994202D068
:10427000304600F01BFA00236363A38923F0240374
:10428000A3810023636023692360A38943F00803AB
:10429000A38123694BB9A38903F42073B3F5007F8D
:1042A00003D02146304600F0C1F9A28912F0010383
:1042B0000CD00023A36063695B42A361236953B9F7
:1042C000B4F90C3013F08000BAD170BD920758BF1A
:1042D0006369A360F2E70020F7E700BF1800002041
:1042E000F8490008184A0008D84900088A892DE9C9
:1042F000F041054610070C465AD44B68002B05DCEC
:104300000B6C002B02DC0020BDE8F081E66A002E79
:10431000F9D0002312F480522F682B6033D0606DE7
:10432000A3895A0705D56368C01A636B0BB1236C68
:10433000C01A00230246E66A216A2846B047431C99
:10434000A38906D129681D294BD82B4ACA40D60714
:1043500047D5002262602269D904226004D5421C3C
:1043600001D12B6803B96065616B2F600029CAD049
:1043700004F14403994202D0284600F097F9002046
:104380006063BDE8F081216A01232846B047411CE3
:10439000C6D12B68002BC3D01D2B01D0162B01D109
:1043A0002F60B0E7A38943F04003A381BDE8F0810B
:1043B0000F69002FA7D0930718BF00230E6808BF0E
:1043C0004B69A6EB07080F608B60B8F1000F9ADD10
:1043D00043463A46216A2846A66AB047002807DCC9
:1043E000A38943F04003A3814FF0FF30BDE8F08183
:1043F0000744A8EB0008E8E70100402038B50B6946
:1044000005460C46DBB118B183690BB900F060F8C2
:104410000C4B9C4209D16C68B4F90C307BB121463D
:104420002846BDE83840FFF761BF074B9C4201D1E9
:10443000AC68F1E7054B9C4208BFEC68ECE7002054
:1044400038BD00BFF8490008184A0008D8490008DC
:10445000014900F0A9B800BFFD430008002310B5D2
:10446000044603604360836081814366C2810361C7
:1044700043618361194608225C30FFF70AFE054B51
:1044800024626362044BA362044BE362044B236324
:1044900010BD00BF21480008434800087B480008C1
:1044A0009F48000870B568254A1E55430E4605F121
:1044B000740100F047F9044640B1002180E8420051
:1044C0000C30A06005F16802FFF7E3FD204670BDE7
:1044D000836910B5044633BB8364C3640365124B20
:1044E000124A1B688262984204BF0123836100F074
:1044F0001FF86060204600F01BF8A060204600F026
:1045000017F80022E06004216068FFF7A7FF01228E
:104510000921A068FFF7A2FF02221221E068FFF73D
:104520009DFF0123A36110BDD44900085144000838
:10453000F8B51C4B07461E68B36913B93046FFF740
:10454000C7FF4836B4687368013B03D5336833B19D
:104550003668F7E7B4F90C506DB16834F4E704211C
:104560003846FFF79FFF30600028F1D10C23044646
:104570003B602046F8BD4FF6FF73E381012365667B
:10458000A3812560A560656025616561A56108223C
:10459000294604F15C00FFF77CFD6563A563A56413
:1045A000E564E6E7D44900082DE9F84380468946EA
:1045B000002600F1480414B93046BDE8F883A56828
:1045C0006768013F01D52468F5E7AB89012B07D95E
:1045D000B5F90E30013303D029464046C84706439B
:1045E0006835EEE770B50E46B1F90E1090B00029AF
:1045F00014461D4607DA00232B60B3891A0610D42F
:104600004FF480630EE001AA00F070F90028F2DB9D
:10461000029A02F47042A2F500535A425A412A60AB
:10462000EEE740230020236010B070BD8B8973B586
:104630009D0706460C4607D504F147032360236116
:104640000123636102B070BD01AB6A46FFF7CAFF88
:1046500000990546304600F075F848B9B4F90C30B9
:104660009A05EFD423F0030343F00203A381E3E7A9
:104670000D4BB362A389206043F08003A381009BAC
:1046800020616361019B5BB1B4F90E10304600F00C
:104690003FF928B1A38923F0030343F00103A38169
:1046A000A3891D43A581CDE75144000838B50546CF
:1046B000002943D051F8043C0C1F002BB8BFE4186C
:1046C00000F048F91E4A1368104633B9636014605D
:1046D0002846BDE8384000F03EB9A3420BD9216816
:1046E0006218934201BF1A685B68521822606360C7
:1046F0000460EDE713465A680AB1A242FAD9196874
:104700005818A0420BD12068014458188242196001
:10471000DED110685268014419605A60D8E702D9A6
:104720000C232B60D4E7206821188A4201BF11684E
:1047300052680918216062605C60C9E738BD00BF3B
:10474000A800002070B5CD1C25F0030508350C2D00
:1047500038BF0C25002D064601DBA94203D90C23E6
:104760003360002070BD00F0F5F8234A146821463C
:1047700091B9224C23681BB9304600F041F8206003
:104780002946304600F03CF8431C26D10C23304625
:10479000336000F0E0F8E4E70B685B1B1AD40B2BE6
:1047A0000FD90B60CC18CD50304600F0D4F804F18E
:1047B0000B00231D20F00700C31A1BD05A42E25001
:1047C00070BD8C420BBF63684B681360636018BF99
:1047D0000C46E9E70C464968CAE7C41C24F0030408
:1047E000A04205D0211A304600F00AF80130CDD0A1
:1047F0002560D9E770BD00BFA8000020AC000020F4
:1048000038B50023054C054608462360FFF756FBE4
:10481000431C02D1236803B12B6038BDF80100208E
:1048200010B50C46B1F90E1000F096F80028ABBF99
:10483000636DA3891B1823F48053ACBF6365A38108
:1048400010BD2DE9F0411F468B890546DB050C465E
:10485000164605D502230022B1F90E1000F068F8C3
:10486000A389324623F48053A381B4F90E103B464A
:104870002846BDE8F04100F017B810B50C46B1F974
:104880000E1000F055F8431CA38915BF606523F492
:10489000805343F48053A38118BFA38110BDB1F9A5
:1048A0000E1000F013B8000038B505460846114652
:1048B0000022054C22601A46FFF7E3FA431C02D19E
:1048C000236803B12B6038BDF801002038B5002300
:1048D000054C054608462360FFF71CFB431C02D12C
:1048E000236803B12B6038BDF801002038B50023E0
:1048F000064C0546084611462360FFF716FB431C8D
:1049000002D1236803B12B6038BD00BFF80100203D
:1049100038B50023054C054608462360FFF714FB15
:10492000431C02D1236803B12B6038BDF80100207D
:1049300038B50546084611460022054C22601A4645
:10494000FFF70CFB431C02D1236803B12B6038BD79
:10495000F80100207047704738B5054608461146F3
:104960000022054C22601A46FFF76EFA431C02D162
:10497000236803B12B6038BDF8010020F8B500BFF3
:10498000F8BC08BC9E467047F8B500BFF8BC08BC30
:044990009E46704788
:1049940002030405060708090A0B0C0D0E0F10107C
:1049A40001020000534F52544952414E4A45204798
:1049B4004F544F564F0D000000000000000000004F
:1049C40001020304060708090000000001020304B1
:1049D4001C00002000000000000000000000000097
:1049E40000000000000000000000000000000000C3
:1049F40000000000000000000000000000000000B3
:104A040000000000000000000000000000000000A2
:104A14000000000000000000000000000000000092
:104A24000000000000000000000000000000000082
:044A3400000000007E
:044A3800350100083C
:044A3C00110100085C
:104A40001000000001000000000061C40000803F71
:104A5000010000000024F4001C0000200000000001
:104A6000F8490008184A0008D8490008000000006A
:104A70000000000000000000000000000000000036
:104A80000000000000000000000000000000000026
:104A90000000000000000000000000000000000016
:104AA0000000000000000000000000000000000006
:0C4AB000000000000000000000000000FA
:0400000508003FDDD3
:00000001FF
